{
  "_format": "hh-sol-artifact-1",
  "contractName": "GiftEscrow",
  "sourceName": "contracts/GiftEscrow.sol",
  "abi": [
    {
      "inputs": [
        {
          "internalType": "bytes32",
          "name": "codeHash",
          "type": "bytes32"
        },
        {
          "internalType": "uint8",
          "name": "assetType",
          "type": "uint8"
        },
        {
          "internalType": "address",
          "name": "tokenAddress",
          "type": "address"
        },
        {
          "internalType": "uint256",
          "name": "tokenId",
          "type": "uint256"
        },
        {
          "internalType": "uint256",
          "name": "amount",
          "type": "uint256"
        }
      ],
      "name": "addAssetToGiftPack",
      "outputs": [],
      "stateMutability": "payable",
      "type": "function"
    },
    {
      "inputs": [
        {
          "internalType": "string",
          "name": "message",
          "type": "string"
        },
        {
          "internalType": "bytes32",
          "name": "codeHash",
          "type": "bytes32"
        },
        {
          "components": [
            {
              "internalType": "address",
              "name": "tokenAddress",
              "type": "address"
            },
            {
              "internalType": "bytes",
              "name": "data",
              "type": "bytes"
            }
          ],
          "internalType": "struct GiftEscrow.ApprovalCall[]",
          "name": "approvals",
          "type": "tuple[]"
        },
        {
          "components": [
            {
              "internalType": "uint8",
              "name": "assetType",
              "type": "uint8"
            },
            {
              "internalType": "address",
              "name": "tokenAddress",
              "type": "address"
            },
            {
              "internalType": "uint256",
              "name": "tokenId",
              "type": "uint256"
            },
            {
              "internalType": "uint256",
              "name": "amount",
              "type": "uint256"
            }
          ],
          "internalType": "struct GiftEscrow.AddAssetCall[]",
          "name": "assets",
          "type": "tuple[]"
        }
      ],
      "name": "createAndLockGiftBatch",
      "outputs": [],
      "stateMutability": "payable",
      "type": "function"
    },
    {
      "inputs": [],
      "name": "ReentrancyGuardReentrantCall",
      "type": "error"
    },
    {
      "inputs": [
        {
          "internalType": "address",
          "name": "token",
          "type": "address"
        }
      ],
      "name": "SafeERC20FailedOperation",
      "type": "error"
    },
    {
      "anonymous": false,
      "inputs": [
        {
          "indexed": true,
          "internalType": "bytes32",
          "name": "codeHash",
          "type": "bytes32"
        },
        {
          "indexed": false,
          "internalType": "uint256",
          "name": "assetIndex",
          "type": "uint256"
        },
        {
          "indexed": false,
          "internalType": "uint8",
          "name": "assetType",
          "type": "uint8"
        }
      ],
      "name": "AssetAddedToGiftPack",
      "type": "event"
    },
    {
      "inputs": [
        {
          "internalType": "bytes32",
          "name": "codeHash",
          "type": "bytes32"
        },
        {
          "internalType": "string",
          "name": "code",
          "type": "string"
        }
      ],
      "name": "claimGiftPackWithCode",
      "outputs": [],
      "stateMutability": "nonpayable",
      "type": "function"
    },
    {
      "inputs": [
        {
          "internalType": "string",
          "name": "message",
          "type": "string"
        },
        {
          "internalType": "bytes32",
          "name": "codeHash",
          "type": "bytes32"
        }
      ],
      "name": "createGiftPack",
      "outputs": [
        {
          "internalType": "bytes32",
          "name": "",
          "type": "bytes32"
        }
      ],
      "stateMutability": "nonpayable",
      "type": "function"
    },
    {
      "anonymous": false,
      "inputs": [
        {
          "indexed": true,
          "internalType": "bytes32",
          "name": "codeHash",
          "type": "bytes32"
        },
        {
          "indexed": true,
          "internalType": "address",
          "name": "claimer",
          "type": "address"
        }
      ],
      "name": "GiftPackClaimed",
      "type": "event"
    },
    {
      "anonymous": false,
      "inputs": [
        {
          "indexed": true,
          "internalType": "bytes32",
          "name": "codeHash",
          "type": "bytes32"
        },
        {
          "indexed": true,
          "internalType": "address",
          "name": "sender",
          "type": "address"
        },
        {
          "indexed": false,
          "internalType": "uint256",
          "name": "assetCount",
          "type": "uint256"
        }
      ],
      "name": "GiftPackLocked",
      "type": "event"
    },
    {
      "inputs": [
        {
          "internalType": "bytes32",
          "name": "codeHash",
          "type": "bytes32"
        }
      ],
      "name": "lockGiftPack",
      "outputs": [],
      "stateMutability": "nonpayable",
      "type": "function"
    },
    {
      "stateMutability": "payable",
      "type": "receive"
    },
    {
      "inputs": [
        {
          "internalType": "uint256",
          "name": "",
          "type": "uint256"
        }
      ],
      "name": "allCodeHashes",
      "outputs": [
        {
          "internalType": "bytes32",
          "name": "",
          "type": "bytes32"
        }
      ],
      "stateMutability": "view",
      "type": "function"
    },
    {
      "inputs": [
        {
          "internalType": "bytes32",
          "name": "",
          "type": "bytes32"
        }
      ],
      "name": "codeHashExists",
      "outputs": [
        {
          "internalType": "bool",
          "name": "",
          "type": "bool"
        }
      ],
      "stateMutability": "view",
      "type": "function"
    },
    {
      "inputs": [
        {
          "internalType": "bytes32",
          "name": "codeHash",
          "type": "bytes32"
        }
      ],
      "name": "codeHashExistsCheck",
      "outputs": [
        {
          "internalType": "bool",
          "name": "exists",
          "type": "bool"
        }
      ],
      "stateMutability": "view",
      "type": "function"
    },
    {
      "inputs": [],
      "name": "getAllCodeHashes",
      "outputs": [
        {
          "internalType": "bytes32[]",
          "name": "codeHashes",
          "type": "bytes32[]"
        }
      ],
      "stateMutability": "view",
      "type": "function"
    },
    {
      "inputs": [
        {
          "internalType": "bytes32",
          "name": "codeHash",
          "type": "bytes32"
        },
        {
          "internalType": "uint256",
          "name": "index",
          "type": "uint256"
        }
      ],
      "name": "getAssetByIndex",
      "outputs": [
        {
          "components": [
            {
              "internalType": "enum GiftEscrow.AssetType",
              "name": "assetType",
              "type": "uint8"
            },
            {
              "internalType": "address",
              "name": "tokenAddress",
              "type": "address"
            },
            {
              "internalType": "uint256",
              "name": "tokenId",
              "type": "uint256"
            },
            {
              "internalType": "uint256",
              "name": "amount",
              "type": "uint256"
            }
          ],
          "internalType": "struct GiftEscrow.Asset",
          "name": "asset",
          "type": "tuple"
        }
      ],
      "stateMutability": "view",
      "type": "function"
    },
    {
      "inputs": [
        {
          "internalType": "bytes32",
          "name": "codeHash",
          "type": "bytes32"
        }
      ],
      "name": "getGiftPackAssets",
      "outputs": [
        {
          "components": [
            {
              "internalType": "enum GiftEscrow.AssetType",
              "name": "assetType",
              "type": "uint8"
            },
            {
              "internalType": "address",
              "name": "tokenAddress",
              "type": "address"
            },
            {
              "internalType": "uint256",
              "name": "tokenId",
              "type": "uint256"
            },
            {
              "internalType": "uint256",
              "name": "amount",
              "type": "uint256"
            }
          ],
          "internalType": "struct GiftEscrow.Asset[]",
          "name": "assets",
          "type": "tuple[]"
        }
      ],
      "stateMutability": "view",
      "type": "function"
    },
    {
      "inputs": [
        {
          "internalType": "bytes32",
          "name": "codeHash",
          "type": "bytes32"
        }
      ],
      "name": "getGiftPackDetails",
      "outputs": [
        {
          "internalType": "address",
          "name": "sender",
          "type": "address"
        },
        {
          "internalType": "bool",
          "name": "claimed",
          "type": "bool"
        },
        {
          "internalType": "string",
          "name": "message",
          "type": "string"
        },
        {
          "internalType": "uint256",
          "name": "assetCount",
          "type": "uint256"
        }
      ],
      "stateMutability": "view",
      "type": "function"
    },
    {
      "inputs": [
        {
          "internalType": "uint256",
          "name": "",
          "type": "uint256"
        }
      ],
      "name": "giftIdToCodeHash",
      "outputs": [
        {
          "internalType": "bytes32",
          "name": "",
          "type": "bytes32"
        }
      ],
      "stateMutability": "view",
      "type": "function"
    },
    {
      "inputs": [
        {
          "internalType": "bytes32",
          "name": "",
          "type": "bytes32"
        }
      ],
      "name": "giftPacks",
      "outputs": [
        {
          "internalType": "address",
          "name": "sender",
          "type": "address"
        },
        {
          "internalType": "bool",
          "name": "claimed",
          "type": "bool"
        },
        {
          "internalType": "string",
          "name": "message",
          "type": "string"
        },
        {
          "internalType": "bytes32",
          "name": "codeHash",
          "type": "bytes32"
        }
      ],
      "stateMutability": "view",
      "type": "function"
    },
    {
      "inputs": [],
      "name": "nextGiftId",
      "outputs": [
        {
          "internalType": "uint256",
          "name": "",
          "type": "uint256"
        }
      ],
      "stateMutability": "view",
      "type": "function"
    },
    {
      "inputs": [
        {
          "internalType": "address",
          "name": "",
          "type": "address"
        },
        {
          "internalType": "address",
          "name": "",
          "type": "address"
        },
        {
          "internalType": "uint256",
          "name": "",
          "type": "uint256"
        },
        {
          "internalType": "bytes",
          "name": "",
          "type": "bytes"
        }
      ],
      "name": "onERC721Received",
      "outputs": [
        {
          "internalType": "bytes4",
          "name": "",
          "type": "bytes4"
        }
      ],
      "stateMutability": "pure",
      "type": "function"
    },
    {
      "inputs": [
        {
          "internalType": "bytes32",
          "name": "codeHash",
          "type": "bytes32"
        }
      ],
      "name": "validateGiftPackForLocking",
      "outputs": [
        {
          "internalType": "bool",
          "name": "valid",
          "type": "bool"
        },
        {
          "internalType": "string",
          "name": "reason",
          "type": "string"
        }
      ],
      "stateMutability": "view",
      "type": "function"
    }
  ],
  "bytecode": "0x60808060405234601f5760016000556001600655611c8f90816100258239f35b600080fdfe6080604052600436101561001b575b361561001957600080fd5b005b6000803560e01c806306d495bc146113af57806307763e58146113855780630b495bf3146112ff57806312f0a275146112bf578063150b7a021461126857806323846a611461101f5780632614d4ce14610f465780632746eac714610e69578063487dd9e214610c6157806362c56a9314610c0a5780636340caa014610b995780636729b237146108f25780638434e480146101b8578063a9703eb2146101e7578063a9caf153146101b8578063cce27548146101025763de5da0cf146100e2575061000e565b346100ff57806003193601126100ff576020600654604051908152f35b80fd5b50346100ff57806003193601126100ff5760405180602060055491828152018091600585527f036b6384b5eca791c62761152d0c79bb0604c104a5fb6f4eb0703f3154bb3db090855b8181106101a257505050826101619103836115fa565b604051928392602084019060208552518091526040840192915b818110610189575050500390f35b825184528594506020938401939092019160010161017b565b825484526020909301926001928301920161014b565b50346100ff5760203660031901126100ff5760ff60406020926004358152600384522054166040519015158152f35b5060803660031901126100ff576004356001600160401b0381116107d657610213903690600401611562565b90602435906044356001600160401b0381116108ee57366023820112156108ee578060040135906001600160401b0382116108ea576024810190602436918460051b0101116108ea57606435926001600160401b0384116106585736602385011215610658578360040135956001600160401b038711610797573660248860071b87010111610797576102a4611bd0565b85885260036020526102bd60ff60408a2054161561180c565b86156108a5576102e5604051926102d3846115c9565b33845260208401928a84523691611853565b604083810191825260608401888152888b526001602052908a209351845493516001600160a81b03199094166001600160a01b03919091161792151560a01b60ff60a01b1692909217835551805160018401916001600160401b03821161089157610350835461158f565b601f811161084c575b50602090601f83116001146107e5576002949392918c91836107da575b50508160011b916000199060031b1c19161790555b51910155838652600360205260408620805460ff191660011790556103af8461188a565b855b82811061069c575050508390845b8481101561065c578060071b8201926080602319853603011261065857604051906103e9826115c9565b602485013560ff8116908181036106545783526044860135906001600160a01b0382168203610654576020840191825261043c6002604086019260648a013584526084606088019a01358a52111561197e565b60ff845116926003841015610640576002840361053f5761045f88511515611a38565b8751810180911161052b57906104bc939291975b898c5260026020526040808d2093519251915190519490926001600160a01b0316906104a8906104a2876115c9565b86611701565b602085015260408401526060830152611ab2565b8487526002602052604087205460001981019190821161051757516040805192835260ff90911660208301526001929186917f25eda64c22ff2667da4de3ebff2a567f56d7a2766c4e0fe20da789414a7827aa91a2016103bf565b634e487b7160e01b88526011600452602488fd5b634e487b7160e01b8b52601160045260248bfd5b969291908261058e5781516104bc9490610563906001600160a01b031615156119ba565b61056f81511515611a38565b8251815161058991309033906001600160a01b0316611b8c565b610473565b600183146105a0575b6104bc93610473565b81516105b6906001600160a01b031615156119ba565b6105c2815115156119fe565b815181518c916001600160a01b0316803b1561063c57604051632142170760e11b8152336004820152306024820152604481019290925282908290606490829084905af1801561063157610618575b5050610597565b81610622916115fa565b61062d578a38610611565b8a80fd5b6040513d84823e3d90fd5b8280fd5b634e487b7160e01b8b52602160045260248bfd5b8980fd5b8680fd5b5050610669903414611a71565b6040519182527f4d11e95ec908217605d711badec934879ce7b7be6eb3d2d3c35c754408ceee9c60203393a36001815580f35b866106a8828585611b6a565b356001600160a01b03811681036107d6576106c4838686611b6a565b602081013590601e19813603018212156107d25701908135916001600160401b0383116107d2576020019180360383136107d257838093826040519384928337810182815203925af1610715611b3a565b901561079b5780518061072d575b50506001016103b1565b8160209181010312610797576020015180159081150361079757610752573880610723565b60405162461bcd60e51b815260206004820152601760248201527f417070726f76616c2072657475726e65642066616c73650000000000000000006044820152606490fd5b8780fd5b60405162461bcd60e51b815260206004820152600f60248201526e105c1c1c9bdd985b0819985a5b1959608a1b6044820152606490fd5b8380fd5b5080fd5b015190503880610376565b838c52818c209190601f1984168d5b81811061083457509160019391856002989796941061081b575b505050811b01905561038b565b015160001960f88460031b161c1916905538808061080e565b929360206001819287860151815501950193016107f4565b838c5260208c20601f840160051c81019160208510610887575b601f0160051c01905b81811061087c5750610359565b8c815560010161086f565b9091508190610866565b634e487b7160e01b8b52604160045260248bfd5b60405162461bcd60e51b815260206004820152601b60248201527f4174206c65617374206f6e6520617373657420726571756972656400000000006044820152606490fd5b8580fd5b8480fd5b50346100ff5760403660031901126100ff576004356024356001600160401b03811161063c5761092782913690600401611562565b61092f611bd0565b828552600360205261094760ff6040872054166116bf565b61096e6020604051838194838301968737810188838201520301601f1981018352826115fa565b51902003610b6557808252600160205260408220805461099460ff8260a01c1615611940565b60ff60a01b1916600160a01b179055808252600260205260408220825b8154811015610b36576109c481836118d5565b5060ff8154166003811015610b225785919060018103610a5657508054600191909101549060081c6001600160a01b0316803b1561063c57604051632142170760e11b8152306004820152336024820152604481019290925282908290606490829084905af1801561063157610a41575b50506001905b016109b1565b81610a4b916115fa565b6107d2578338610a35565b9291508583610ab35750805460029091015460405163a9059cbb60e01b602082015233602482015260448082019290925290815260019350610aae9160081c6001600160a01b0316610aa96064836115fa565b611bf2565b610a3b565b9192600214610ac7575b5050600190610a3b565b8180600281930154335af1610ada611b3a565b5015610ae7578338610abd565b60405162461bcd60e51b8152602060048201526013602482015272115512081d1c985b9cd9995c8819985a5b1959606a1b6044820152606490fd5b634e487b7160e01b86526021600452602486fd5b505033907f65840200ead5fceefc7c15e974090667076408b430c0804ae61a5068e0eeb77a8380a36001815580f35b60405162461bcd60e51b815260206004820152600c60248201526b496e76616c696420636f646560a01b6044820152606490fd5b50346100ff5760203660031901126100ff57604060ff916004358152600160205220805490610c006002610bcf6001840161161b565b9201549160405194859460018060a01b038116865260a01c16151560208501526080604085015260808401906114f0565b9060608301520390f35b50346100ff5760203660031901126100ff57600435906005548210156100ff57600554821015610c4d576020916005825282822001549060031b1c604051908152f35b634e487b7160e01b81526032600452602490fd5b5060a03660031901126100ff57600435906024359160ff83169283810361063c576044356001600160a01b03811694908590036107d257606435946084358486526003602052610cb760ff6040882054166116bf565b84865260016020526040862054610ce99060ff90610cdf6001600160a01b0382163314611907565b60a01c1615611940565b6003831015610b2257610cff600284111561197e565b60028303610da757610d4193949596610d19341515611a38565b610d24823414611a71565b868852600260205260408820926104a8604051956104a2876115c9565b818352600260205260408320546000198101908111610d93576040805191825260ff9290921660208201527f25eda64c22ff2667da4de3ebff2a567f56d7a2766c4e0fe20da789414a7827aa9190a280f35b634e487b7160e01b84526011600452602484fd5b82610dda57610d4193949596610dbe8315156119ba565b610dc9821515611a38565b610dd582303386611b8c565b610d24565b60018314610def575b610d4193949596610d24565b610dfa8215156119ba565b610e058715156119fe565b813b156108ea57604051632142170760e11b815233600482015230602482015260448101889052868160648183875af18015610e5e57610e46575b50610de3565b95610e5681610d419697986115fa565b959493610e40565b6040513d89823e3d90fd5b50346100ff5760203660031901126100ff576004358082526003602052610e9660ff6040842054166116bf565b80825260016020526040822054610ebe9060ff90610cdf6001600160a01b0382163314611907565b8082526002602052604082205415610f0d5780825260026020526040822054906040519182527f4d11e95ec908217605d711badec934879ce7b7be6eb3d2d3c35c754408ceee9c60203393a380f35b60405162461bcd60e51b81526020600482015260116024820152704e6f2061737365747320696e207061636b60781b6044820152606490fd5b50346100ff5760403660031901126100ff5760043560243591806060604051610f6e816115c9565b82815282602082015282604082015201528181526003602052610f9760ff6040832054166116bf565b81815260026020526040812054831015610fda57608092604082610fcb94610fc594526002602052206118d5565b5061170d565b610fd860405180926114a5565bf35b60405162461bcd60e51b815260206004820152601960248201527f417373657420696e646578206f7574206f6620626f756e6473000000000000006044820152606490fd5b50346100ff5760403660031901126100ff576004356001600160401b0381116107d657611050903690600401611562565b9060243591828452600360205261106e60ff6040862054161561180c565b6110906040519261107e846115c9565b33845260208401928684523691611853565b60408381019182526060840185815285875260016020529086209351845493516001600160a81b03199094166001600160a01b03919091161792151560a01b60ff60a01b1692909217835551805160018401916001600160401b038211611254576110fb835461158f565b601f811161120f575b50602090601f83116001146111a85760029493929188918361119d575b50508160011b916000199060031b1c19161790555b51910155808252600360205260408220805460ff1916600117905561115a8161188a565b600654825260046020528060408320556006549160001983146111895750600160209201600655604051908152f35b634e487b7160e01b81526011600452602490fd5b015190503880611121565b8388528188209190601f198416895b8181106111f75750916001939185600298979694106111de575b505050811b019055611136565b015160001960f88460031b161c191690553880806111d1565b929360206001819287860151815501950193016111b7565b83885260208820601f840160051c8101916020851061124a575b601f0160051c01905b81811061123f5750611104565b888155600101611232565b9091508190611229565b634e487b7160e01b87526041600452602487fd5b50346100ff5760803660031901126100ff57611282611531565b5061128b61154c565b506064356001600160401b0381116107d6576112ab903690600401611562565b5050604051630a85bd0160e11b8152602090f35b50346100ff5760203660031901126100ff576112dc60043561176c565b906112fb604051928392151583526040602084015260408301906114f0565b0390f35b50346100ff5760203660031901126100ff5760ff9060043590818152600360205261132f836040832054166116bf565b8181526001602052610c006113586001604080852094855496815260026020522054930161161b565b60405194859460018060a01b038116865260a01c16151560208501526080604085015260808401906114f0565b50346100ff5760203660031901126100ff5760406020916004358152600483522054604051908152f35b50346100ff5760203660031901126100ff5760043580825260036020526113dc60ff6040842054166116bf565b815260026020526040812080546001600160401b038111611491576040519061140b60208260051b01836115fa565b80825260208201809385526020852085915b83831061147357868587604051928392602084019060208552518091526040840192915b81811061144f575050500390f35b91935091602060808261146560019488516114a5565b019401910191849392611441565b600360206001926114838561170d565b81520192019201919061141d565b634e487b7160e01b83526041600452602483fd5b805160038110156114da5782526020808201516001600160a01b03169083015260408082015190830152606090810151910152565b634e487b7160e01b600052602160045260246000fd5b919082519283825260005b84811061151c575050826000602080949584010152601f8019910116010190565b806020809284010151828286010152016114fb565b600435906001600160a01b038216820361154757565b600080fd5b602435906001600160a01b038216820361154757565b9181601f84011215611547578235916001600160401b038311611547576020838186019501011161154757565b90600182811c921680156115bf575b60208310146115a957565b634e487b7160e01b600052602260045260246000fd5b91607f169161159e565b608081019081106001600160401b038211176115e457604052565b634e487b7160e01b600052604160045260246000fd5b90601f801991011681019081106001600160401b038211176115e457604052565b906040519182600082549261162f8461158f565b808452936001811690811561169d5750600114611656575b50611654925003836115fa565b565b90506000929192526020600020906000915b8183106116815750509060206116549282010138611647565b6020919350806001915483858901015201910190918492611668565b90506020925061165494915060ff191682840152151560051b82010138611647565b156116c657565b60405162461bcd60e51b815260206004820152601360248201527211da599d081c1858dac81b9bdd08199bdd5b99606a1b6044820152606490fd5b60038210156114da5752565b9060405161171a816115c9565b606060028294805461172f60ff821686611701565b60081c6001600160a01b03166020850152600181015460408501520154910152565b6001600160401b0381116115e457601f01601f191660200190565b80156117d857600052600360205260ff6040600020541661179f576001906040516117986020826115fa565b6000815290565b6000906040516117b06040826115fa565b6018815277436f6465206861736820616c72656164792065786973747360401b602082015290565b506000906040516117ea6040826115fa565b601281527110dbd919481a185cda081c995c5d5a5c995960721b602082015290565b1561181357565b60405162461bcd60e51b8152602060048201526018602482015277436f6465206861736820616c72656164792065786973747360401b6044820152606490fd5b92919261185f82611751565b9161186d60405193846115fa565b829481845281830111611547578281602093846000960137010152565b600554600160401b8110156115e457600181016005556000600554821015610c4d57600590527f036b6384b5eca791c62761152d0c79bb0604c104a5fb6f4eb0703f3154bb3db00155565b80548210156118f1576000526003602060002091020190600090565b634e487b7160e01b600052603260045260246000fd5b1561190e57565b60405162461bcd60e51b815260206004820152600a6024820152692737ba1039b2b73232b960b11b6044820152606490fd5b1561194757565b60405162461bcd60e51b815260206004820152600f60248201526e105b1c9958591e4818db185a5b5959608a1b6044820152606490fd5b1561198557565b60405162461bcd60e51b815260206004820152600d60248201526c4261642061737365745479706560981b6044820152606490fd5b156119c157565b60405162461bcd60e51b8152602060048201526015602482015274496e76616c696420746f6b656e206164647265737360581b6044820152606490fd5b15611a0557565b60405162461bcd60e51b815260206004820152600b60248201526a0746f6b656e4964203e20360ac1b6044820152606490fd5b15611a3f57565b60405162461bcd60e51b815260206004820152600a6024820152690416d6f756e74203e20360b41b6044820152606490fd5b15611a7857565b60405162461bcd60e51b815260206004820152601260248201527108aa89040ecc2d8eaca40dad2e6dac2e8c6d60731b6044820152606490fd5b8054600160401b8110156115e457611acf916001820181556118d5565b919091611b2457805160038110156114da5782546020830151610100600160a81b0360089190911b1660ff929092166001600160a81b0319909116171782556040810151600183015560600151600290910155565b634e487b7160e01b600052600060045260246000fd5b3d15611b65573d90611b4b82611751565b91611b5960405193846115fa565b82523d6000602084013e565b606090565b91908110156118f15760051b81013590603e1981360301821215611547570190565b6040516323b872dd60e01b60208201526001600160a01b03928316602482015292909116604483015260648083019390935291815261165491610aa96084836115fa565b600260005414611be1576002600055565b633ee5aeb560e01b60005260046000fd5b906000602091828151910182855af115611c4d576000513d611c4457506001600160a01b0381163b155b611c235750565b635274afe760e01b60009081526001600160a01b0391909116600452602490fd5b60011415611c1c565b6040513d6000823e3d90fdfea26469706673582212208eb95efdc6f4b0c59730549f644b31c587063650d413087f7679142c807e63ae64736f6c634300081c0033",
  "linkReferences": {},
  "deployedLinkReferences": {}
}