{
  "_format": "hh-sol-artifact-1",
  "contractName": "GiftEscrow",
  "sourceName": "contracts/GiftEscrow.sol",
  "abi": [
    {
      "inputs": [],
      "stateMutability": "nonpayable",
      "type": "constructor"
    },
    {
      "inputs": [
        {
          "internalType": "address",
          "name": "token",
          "type": "address"
        }
      ],
      "name": "SafeERC20FailedOperation",
      "type": "error"
    },
    {
      "anonymous": false,
      "inputs": [
        {
          "indexed": true,
          "internalType": "bytes32",
          "name": "codeHash",
          "type": "bytes32"
        },
        {
          "indexed": false,
          "internalType": "uint256",
          "name": "assetIndex",
          "type": "uint256"
        },
        {
          "indexed": false,
          "internalType": "uint8",
          "name": "assetType",
          "type": "uint8"
        }
      ],
      "name": "AssetAddedToGiftPack",
      "type": "event"
    },
    {
      "anonymous": false,
      "inputs": [
        {
          "indexed": true,
          "internalType": "bytes32",
          "name": "codeHash",
          "type": "bytes32"
        },
        {
          "indexed": true,
          "internalType": "address",
          "name": "claimer",
          "type": "address"
        }
      ],
      "name": "GiftPackClaimed",
      "type": "event"
    },
    {
      "anonymous": false,
      "inputs": [
        {
          "indexed": true,
          "internalType": "bytes32",
          "name": "codeHash",
          "type": "bytes32"
        }
      ],
      "name": "GiftPackExpired",
      "type": "event"
    },
    {
      "anonymous": false,
      "inputs": [
        {
          "indexed": true,
          "internalType": "bytes32",
          "name": "codeHash",
          "type": "bytes32"
        },
        {
          "indexed": true,
          "internalType": "address",
          "name": "sender",
          "type": "address"
        },
        {
          "indexed": false,
          "internalType": "uint256",
          "name": "assetCount",
          "type": "uint256"
        },
        {
          "indexed": false,
          "internalType": "uint256",
          "name": "expiryTimestamp",
          "type": "uint256"
        }
      ],
      "name": "GiftPackLocked",
      "type": "event"
    },
    {
      "inputs": [
        {
          "internalType": "bytes32",
          "name": "codeHash",
          "type": "bytes32"
        },
        {
          "internalType": "uint8",
          "name": "assetType",
          "type": "uint8"
        },
        {
          "internalType": "address",
          "name": "tokenAddress",
          "type": "address"
        },
        {
          "internalType": "uint256",
          "name": "tokenId",
          "type": "uint256"
        },
        {
          "internalType": "uint256",
          "name": "amount",
          "type": "uint256"
        }
      ],
      "name": "addAssetToGiftPack",
      "outputs": [],
      "stateMutability": "payable",
      "type": "function"
    },
    {
      "inputs": [
        {
          "internalType": "uint256",
          "name": "",
          "type": "uint256"
        }
      ],
      "name": "allCodeHashes",
      "outputs": [
        {
          "internalType": "bytes32",
          "name": "",
          "type": "bytes32"
        }
      ],
      "stateMutability": "view",
      "type": "function"
    },
    {
      "inputs": [
        {
          "internalType": "bytes32",
          "name": "codeHash",
          "type": "bytes32"
        },
        {
          "internalType": "string",
          "name": "code",
          "type": "string"
        }
      ],
      "name": "claimGiftPackWithCode",
      "outputs": [],
      "stateMutability": "nonpayable",
      "type": "function"
    },
    {
      "inputs": [
        {
          "internalType": "bytes32",
          "name": "",
          "type": "bytes32"
        }
      ],
      "name": "codeHashExists",
      "outputs": [
        {
          "internalType": "bool",
          "name": "",
          "type": "bool"
        }
      ],
      "stateMutability": "view",
      "type": "function"
    },
    {
      "inputs": [
        {
          "internalType": "bytes32",
          "name": "codeHash",
          "type": "bytes32"
        }
      ],
      "name": "codeHashExistsCheck",
      "outputs": [
        {
          "internalType": "bool",
          "name": "exists",
          "type": "bool"
        }
      ],
      "stateMutability": "view",
      "type": "function"
    },
    {
      "inputs": [
        {
          "internalType": "uint256",
          "name": "expiryTimestamp",
          "type": "uint256"
        },
        {
          "internalType": "string",
          "name": "message",
          "type": "string"
        },
        {
          "internalType": "bytes32",
          "name": "codeHash",
          "type": "bytes32"
        },
        {
          "components": [
            {
              "internalType": "address",
              "name": "tokenAddress",
              "type": "address"
            },
            {
              "internalType": "bytes",
              "name": "data",
              "type": "bytes"
            }
          ],
          "internalType": "struct GiftEscrow.ApprovalCall[]",
          "name": "approvals",
          "type": "tuple[]"
        },
        {
          "components": [
            {
              "internalType": "uint8",
              "name": "assetType",
              "type": "uint8"
            },
            {
              "internalType": "address",
              "name": "tokenAddress",
              "type": "address"
            },
            {
              "internalType": "uint256",
              "name": "tokenId",
              "type": "uint256"
            },
            {
              "internalType": "uint256",
              "name": "amount",
              "type": "uint256"
            }
          ],
          "internalType": "struct GiftEscrow.AddAssetCall[]",
          "name": "assets",
          "type": "tuple[]"
        }
      ],
      "name": "createAndLockGiftBatch",
      "outputs": [],
      "stateMutability": "payable",
      "type": "function"
    },
    {
      "inputs": [
        {
          "internalType": "uint256",
          "name": "expiryTimestamp",
          "type": "uint256"
        },
        {
          "internalType": "string",
          "name": "message",
          "type": "string"
        },
        {
          "internalType": "bytes32",
          "name": "codeHash",
          "type": "bytes32"
        }
      ],
      "name": "createGiftPack",
      "outputs": [
        {
          "internalType": "bytes32",
          "name": "",
          "type": "bytes32"
        }
      ],
      "stateMutability": "nonpayable",
      "type": "function"
    },
    {
      "inputs": [],
      "name": "getAllCodeHashes",
      "outputs": [
        {
          "internalType": "bytes32[]",
          "name": "codeHashes",
          "type": "bytes32[]"
        }
      ],
      "stateMutability": "view",
      "type": "function"
    },
    {
      "inputs": [
        {
          "internalType": "bytes32",
          "name": "codeHash",
          "type": "bytes32"
        },
        {
          "internalType": "uint256",
          "name": "index",
          "type": "uint256"
        }
      ],
      "name": "getAssetByIndex",
      "outputs": [
        {
          "components": [
            {
              "internalType": "enum GiftEscrow.AssetType",
              "name": "assetType",
              "type": "uint8"
            },
            {
              "internalType": "address",
              "name": "tokenAddress",
              "type": "address"
            },
            {
              "internalType": "uint256",
              "name": "tokenId",
              "type": "uint256"
            },
            {
              "internalType": "uint256",
              "name": "amount",
              "type": "uint256"
            }
          ],
          "internalType": "struct GiftEscrow.Asset",
          "name": "asset",
          "type": "tuple"
        }
      ],
      "stateMutability": "view",
      "type": "function"
    },
    {
      "inputs": [
        {
          "internalType": "bytes32",
          "name": "codeHash",
          "type": "bytes32"
        }
      ],
      "name": "getGiftPackAssets",
      "outputs": [
        {
          "components": [
            {
              "internalType": "enum GiftEscrow.AssetType",
              "name": "assetType",
              "type": "uint8"
            },
            {
              "internalType": "address",
              "name": "tokenAddress",
              "type": "address"
            },
            {
              "internalType": "uint256",
              "name": "tokenId",
              "type": "uint256"
            },
            {
              "internalType": "uint256",
              "name": "amount",
              "type": "uint256"
            }
          ],
          "internalType": "struct GiftEscrow.Asset[]",
          "name": "assets",
          "type": "tuple[]"
        }
      ],
      "stateMutability": "view",
      "type": "function"
    },
    {
      "inputs": [
        {
          "internalType": "bytes32",
          "name": "codeHash",
          "type": "bytes32"
        }
      ],
      "name": "getGiftPackDetails",
      "outputs": [
        {
          "internalType": "address",
          "name": "sender",
          "type": "address"
        },
        {
          "internalType": "uint256",
          "name": "expiryTimestamp",
          "type": "uint256"
        },
        {
          "internalType": "bool",
          "name": "claimed",
          "type": "bool"
        },
        {
          "internalType": "string",
          "name": "message",
          "type": "string"
        },
        {
          "internalType": "uint256",
          "name": "assetCount",
          "type": "uint256"
        }
      ],
      "stateMutability": "view",
      "type": "function"
    },
    {
      "inputs": [
        {
          "internalType": "uint256",
          "name": "",
          "type": "uint256"
        }
      ],
      "name": "giftIdToCodeHash",
      "outputs": [
        {
          "internalType": "bytes32",
          "name": "",
          "type": "bytes32"
        }
      ],
      "stateMutability": "view",
      "type": "function"
    },
    {
      "inputs": [
        {
          "internalType": "bytes32",
          "name": "",
          "type": "bytes32"
        }
      ],
      "name": "giftPacks",
      "outputs": [
        {
          "internalType": "address",
          "name": "sender",
          "type": "address"
        },
        {
          "internalType": "uint256",
          "name": "expiryTimestamp",
          "type": "uint256"
        },
        {
          "internalType": "bool",
          "name": "claimed",
          "type": "bool"
        },
        {
          "internalType": "string",
          "name": "message",
          "type": "string"
        },
        {
          "internalType": "bytes32",
          "name": "codeHash",
          "type": "bytes32"
        }
      ],
      "stateMutability": "view",
      "type": "function"
    },
    {
      "inputs": [
        {
          "internalType": "bytes32",
          "name": "codeHash",
          "type": "bytes32"
        }
      ],
      "name": "lockGiftPack",
      "outputs": [],
      "stateMutability": "nonpayable",
      "type": "function"
    },
    {
      "inputs": [],
      "name": "nextGiftId",
      "outputs": [
        {
          "internalType": "uint256",
          "name": "",
          "type": "uint256"
        }
      ],
      "stateMutability": "view",
      "type": "function"
    },
    {
      "inputs": [
        {
          "internalType": "address",
          "name": "",
          "type": "address"
        },
        {
          "internalType": "address",
          "name": "",
          "type": "address"
        },
        {
          "internalType": "uint256",
          "name": "",
          "type": "uint256"
        },
        {
          "internalType": "bytes",
          "name": "",
          "type": "bytes"
        }
      ],
      "name": "onERC721Received",
      "outputs": [
        {
          "internalType": "bytes4",
          "name": "",
          "type": "bytes4"
        }
      ],
      "stateMutability": "pure",
      "type": "function"
    },
    {
      "inputs": [
        {
          "internalType": "bytes32",
          "name": "codeHash",
          "type": "bytes32"
        }
      ],
      "name": "refundExpiredGiftPack",
      "outputs": [],
      "stateMutability": "nonpayable",
      "type": "function"
    },
    {
      "inputs": [
        {
          "internalType": "uint256",
          "name": "expiryTimestamp",
          "type": "uint256"
        },
        {
          "internalType": "bytes32",
          "name": "codeHash",
          "type": "bytes32"
        }
      ],
      "name": "validateGiftPackForLocking",
      "outputs": [
        {
          "internalType": "bool",
          "name": "valid",
          "type": "bool"
        },
        {
          "internalType": "string",
          "name": "reason",
          "type": "string"
        }
      ],
      "stateMutability": "view",
      "type": "function"
    },
    {
      "stateMutability": "payable",
      "type": "receive"
    }
  ],
  "bytecode": "0x60808060405234601a57600160005561221590816100208239f35b600080fdfe6080604052600436101561001b575b361561001957600080fd5b005b60003560e01c806306d495bc1461013657806307763e58146101315780630b495bf31461012c578063150b7a02146101275780632614d4ce146101225780632746eac71461011d578063487dd9e21461011857806362c56a93146101135780636340caa01461010e5780636729b237146101095780637cb44179146101045780638434e480146100fa578063a9218b2b146100ff578063a9caf153146100fa578063afe60c5c146100f5578063cce27548146100f0578063de5da0cf146100eb5763f27f8c450361000e57611142565b6110f4565b611071565b610fee565b610da7565b610dd8565b610caa565b610a68565b6109ea565b610866565b6105d5565b6104f9565b61043e565b6103d2565b610320565b61027b565b6101d4565b6003111561014557565b634e487b7160e01b600052602160045260246000fd5b805160038110156101455782526020808201516001600160a01b03169083015260408082015190830152606090810151910152565b602060408183019282815284518094520192019060005b8181106101b45750505090565b90919260206080826101c9600194885161015b565b0194019291016101a7565b346102765760203660031901126102765760043580600052600260205261020260ff604060002054166111e5565b60005260016020526005604060002001805461021d81611245565b9161022b6040519384610927565b818352602083019060005260206000206000915b83831061025857604051806102548782610190565b0390f35b6003602060019261026885611268565b81520192019201919061023f565b600080fd5b346102765760203660031901126102765760043560005260056020526020604060002054604051908152f35b919082519283825260005b8481106102d3575050826000602080949584010152601f8019910116010190565b806020809284010151828286010152016102b2565b959493909261031b9260809460018060a01b0316885260208801521515604087015260a0606087015260a08601906102a7565b930152565b346102765760203660031901126102765760043580600052600260205261034e60ff604060002054166111e5565b6000526001602052604060002060018060a01b0381541661025460018301549260ff600282015416610387600360058401549301610948565b90604051958695866102e8565b6001600160a01b0381160361027657565b9181601f84011215610276578235916001600160401b038311610276576020838186019501011161027657565b34610276576080366003190112610276576103ee600435610394565b6103f9602435610394565b6064356001600160401b038111610276576104189036906004016103a5565b5050604051630a85bd0160e11b8152602090f35b60808101929161043c919061015b565b565b346102765760403660031901126102765760243560043561045d6112ac565b5080600052600260205261047860ff604060002054166111e5565b600052600160205260056040600020019081548110156104b4576104a26104a891610254936112d1565b50611268565b6040519182918261042c565b60405162461bcd60e51b815260206004820152601960248201527f417373657420696e646578206f7574206f6620626f756e6473000000000000006044820152606490fd5b346102765760203660031901126102765760043580600052600260205261052760ff604060002054166111e5565b80600052600160205260406000209061055361054e61054a600285015460ff1690565b1590565b6112f2565b8154610573906001600160a01b03165b6001600160a01b03163314611330565b7f2d8109861cf2aa02a8a2028c1d46c9d5b23385a6e872bd8471cde7352f26518c6105c560016005850154946105aa861515611368565b01546040805195865260208601919091523394918291820190565b0390a3005b60ff81160361027657565b60a0366003190112610276576004356024356105f0816105ca565b604435906105fd82610394565b6064359160843592610614600260005414156113a8565b600260005561063f61063a610633876000526002602052604060002090565b5460ff1690565b6111e5565b610653856000526001602052604060002090565b9061066861054e61054a600285015460ff1690565b610677600183015442106113f4565b815461068b906001600160a01b0316610563565b60ff84169161069d600284111561142a565b6106a68361013b565b6106af8361013b565b6002830361074357918561072092610710600561072697966106e16000805160206121c08339815191529b1515611500565b6106ec853414611539565b01956107006106f9611227565b958661125c565b6001600160a01b03166020850152565b60408301526060820152826115cb565b54611624565b6040805191825260ff929092166020820152a26100196001600055565b61074c8361013b565b826107a5576000805160206121c0833981519152956107269493610720939092610710906005906107a0856001600160a01b038a1661078c811515611475565b610797821515611500565b309033906120e0565b6106ec565b6001600160a01b0384169591939290916107c0871515611475565b6107cb8515156114ba565b863b1561027657604051632142170760e11b815233600482015230602482015260448101869052966000908890606490829084905af194851561084b576107106005610720956000805160206121c08339815191529a61072699610830575b506106ec565b8061083f600061084593610927565b8061102c565b3861082a565b6114f4565b634e487b7160e01b600052603260045260246000fd5b34610276576020366003190112610276576004356003548110156102765760209060036000527fc2575a0e9e593c00f959f8c92f12db2869c3395a3b0502d05e2516446f71f85b0154604051908152f35b90600182811c921680156108e7575b60208310146108d157565b634e487b7160e01b600052602260045260246000fd5b91607f16916108c6565b634e487b7160e01b600052604160045260246000fd5b608081019081106001600160401b0382111761092257604052565b6108f1565b90601f801991011681019081106001600160401b0382111761092257604052565b906040519182600082549261095c846108b7565b80845293600181169081156109c85750600114610981575b5061043c92500383610927565b90506000929192526020600020906000915b8183106109ac57505090602061043c9282010138610974565b6020919350806001915483858901015201910190918492610993565b90506020925061043c94915060ff191682840152151560051b82010138610974565b34610276576020366003190112610276576004356000526001602052604060002060018060a01b03815416600182015491610a5e60ff600283015416916004610a3560038301610948565b91015492604051958695865260208601521515604085015260a0606085015260a08401906102a7565b9060808301520390f35b34610276576040366003190112610276576004356024356001600160401b0381116102765781610af5610ae7610aa5610afe9436906004016103a5565b9290610ab6600260005414156113a8565b6002600055610ad561063a610633876000526002602052604060002090565b60405192839160208301958691611638565b03601f198101835282610927565b51902014611646565b610b12816000526001602052604060002090565b610b5860056002830192610b2d61054e61054a865460ff1690565b610b3d60018201544211156113f4565b0191610b4b83541515611368565b805460ff19166001179055565b60005b8154811015610c7957610b6e81836112d1565b5090610b7b825460ff1690565b610b848161013b565b60018103610c1b57508154600190610bb590610ba99060081c6001600160a01b031681565b6001600160a01b031690565b92015491803b1561027657604051632142170760e11b815230600482015233602482015260448101939093526000908390606490829084905af191821561084b57600192610c06575b505b01610b5b565b8061083f6000610c1593610927565b38610bfe565b9182610c2860019461013b565b610c5b578054610c569190600290610c4b9060081c6001600160a01b0316610ba9565b910154903390612129565b610c00565b60008080806002610c56950154335af1610c736116b1565b506116e1565b33837f65840200ead5fceefc7c15e974090667076408b430c0804ae61a5068e0eeb77a600080a36100196001600055565b34610276576060366003190112610276576024356004356001600160401b03821161027657610d77610ce36102549336906004016103a5565b6044359391610d4e90610cf7861515611723565b610d0242851161175f565b856000526002602052610d26610d2161054a604060002060ff90541690565b61179c565b610d2e6117dc565b92610d37611236565b338152946020860152600060408601523691611816565b606083015283608083015260a0820152610d72836000526001602052604060002090565b611a21565b610d8e610b4b826000526002602052604060002090565b610d9781611a8f565b6040519081529081906020820190565b34610276576020366003190112610276576004356000526002602052602060ff604060002054166040519015158152f35b3461027657602036600319011261027657600435610dfb600260005414156113a8565b6002600055610e1a61063a610633836000526002602052604060002090565b610e2e816000526001602052604060002090565b90610e6a60028301610e4761054e61054a835460ff1690565b610e5660018501544211611ada565b8354610b4b906001600160a01b0316610563565b6005820160005b8154811015610fbe57610e8481836112d1565b509084610e92835460ff1690565b610e9b8161013b565b60018103610f3d5750508154610ebe90610ba99060081c6001600160a01b031681565b85549092906001906001600160a01b0316910154833b1561027657604051632142170760e11b81523060048201526001600160a01b039290921660248301526044820152916000908390606490829084905af191821561084b57600192610f28575b505b01610e71565b8061083f6000610f3793610927565b38610f20565b9081610f4b6001959361013b565b610f8957508054610f849190610f6c9060081c6001600160a01b0316610ba9565b8754600290920154916001600160a01b031690612129565b610f22565b60008080610f84946002610faa610ba9610ba985985460018060a01b031690565b910154905af1610fb86116b1565b50611b14565b827fb8b42d37ea6eb7e8c47225f06e29e670a49fb17af2aacc4be5e36621aea28247600080a26100196001600055565b346102765760403660031901126102765761100d602435600435611b83565b90610254604051928392151583526040602084015260408301906102a7565b600091031261027657565b602060408183019282815284518094520192019060005b81811061105b5750505090565b825184526020938401939092019160010161104e565b346102765760003660031901126102765760405180602060035491828152019060036000527fc2575a0e9e593c00f959f8c92f12db2869c3395a3b0502d05e2516446f71f85b9060005b8181106110de57610254856110d281870382610927565b60405191829182611037565b82548452602090930192600192830192016110bb565b34610276576000366003190112610276576020600454604051908152f35b9181601f84011215610276578235916001600160401b038311610276576020808501948460071b01011161027657565b60a0366003190112610276576004356024356001600160401b038111610276576111709036906004016103a5565b9091604435606435916001600160401b0383116102765736602384011215610276578260040135916001600160401b038311610276573660248460051b8601011161027657608435946001600160401b03861161027657610019966111db6024973690600401611112565b9790960193611c25565b156111ec57565b60405162461bcd60e51b815260206004820152601360248201527211da599d081c1858dac81b9bdd08199bdd5b99606a1b6044820152606490fd5b6040519061043c608083610927565b6040519061043c60c083610927565b6001600160401b0381116109225760051b60200190565b60038210156101455752565b9060405161127581610907565b606060028294805461128a60ff82168661125c565b60081c6001600160a01b03166020850152600181015460408501520154910152565b604051906112b982610907565b60006060838281528260208201528260408201520152565b80548210156112ed576000526003602060002091020190600090565b610850565b156112f957565b60405162461bcd60e51b815260206004820152600f60248201526e105b1c9958591e4818db185a5b5959608a1b6044820152606490fd5b1561133757565b60405162461bcd60e51b81526020600482015260096024820152682737ba1037bbb732b960b91b6044820152606490fd5b1561136f57565b60405162461bcd60e51b81526020600482015260116024820152704e6f2061737365747320696e207061636b60781b6044820152606490fd5b156113af57565b60405162461bcd60e51b815260206004820152601f60248201527f5265656e7472616e637947756172643a207265656e7472616e742063616c6c006044820152606490fd5b156113fb57565b60405162461bcd60e51b8152602060048201526007602482015266115e1c1a5c995960ca1b6044820152606490fd5b1561143157565b60405162461bcd60e51b815260206004820152600d60248201526c4261642061737365745479706560981b6044820152606490fd5b60ff1660038110156101455790565b1561147c57565b60405162461bcd60e51b8152602060048201526016602482015275151bdad95b881859191c995cdcc81c995c5d5a5c995960521b6044820152606490fd5b156114c157565b60405162461bcd60e51b815260206004820152600b60248201526a0746f6b656e4964203e20360ac1b6044820152606490fd5b6040513d6000823e3d90fd5b1561150757565b60405162461bcd60e51b815260206004820152600a6024820152690416d6f756e74203e20360b41b6044820152606490fd5b1561154057565b60405162461bcd60e51b8152602060048201526014602482015273125b98dbdc9c9958dd0811551208185b5bdd5b9d60621b6044820152606490fd5b90805160038110156101455782546020830151610100600160a81b0360089190911b1660ff929092166001600160a81b0319909116171782556040810151600183015560600151600290910155565b8054600160401b811015610922576115e8916001820181556112d1565b9190916115f85761043c9161157c565b634e487b7160e01b600052600060045260246000fd5b634e487b7160e01b600052601160045260246000fd5b60001981019190821161163357565b61160e565b908092918237016000815290565b1561164d57565b60405162461bcd60e51b815260206004820152600c60248201526b496e76616c696420636f646560a01b6044820152606490fd5b6001600160401b03811161092257601f01601f191660200190565b604051906116ab602083610927565b60008252565b3d156116dc573d906116c282611681565b916116d06040519384610927565b82523d6000602084013e565b606090565b156116e857565b60405162461bcd60e51b8152602060048201526013602482015272115512081d1c985b9cd9995c8819985a5b1959606a1b6044820152606490fd5b1561172a57565b60405162461bcd60e51b815260206004820152600d60248201526c10dbd919481c995c5d5a5c9959609a1b6044820152606490fd5b1561176657565b60405162461bcd60e51b815260206004820152600e60248201526d115e1c1a5c9e481a5b881c185cdd60921b6044820152606490fd5b156117a357565b60405162461bcd60e51b815260206004820152601160248201527010dbd91948185b1c9958591e481d5cd959607a1b6044820152606490fd5b604051906117eb602083610927565b600080835282815b8281106117ff57505050565b60209061180a6112ac565b828285010152016117f3565b92919261182282611681565b916118306040519384610927565b829481845281830111610276578281602093846000960137010152565b601f821161185a57505050565b6000526020600020906020601f840160051c83019310611895575b601f0160051c01905b818110611889575050565b6000815560010161187e565b9091508190611875565b91909182516001600160401b038111610922576118c6816118c084546108b7565b8461184d565b6020601f82116001146119075781906118f89394956000926118fc575b50508160011b916000199060031b1c19161790565b9055565b0151905038806118e3565b601f1982169061191c84600052602060002090565b9160005b8181106119585750958360019596971061193f575b505050811b019055565b015160001960f88460031b161c19169055388080611935565b9192602060018192868b015181550194019201611920565b815191600160401b83116109225781548383558084106119ce575b50602061199f910191600052602060002090565b6000915b8383106119b05750505050565b60036020826119c2600194518661157c565b019201920191906119a3565b8060030290600382040361163357836003026003810485036116335783600052602060002091820191015b818110611a06575061198b565b806000600392556000600182015560006002820155016119f9565b600560a061043c93600180831b038151166bffffffffffffffffffffffff831b8554161784556020810151600185015560408101511515600285019060ff801983541691151516179055611a7c60608201516003860161189f565b6080810151600485015501519101611970565b600354600160401b811015610922576001810160035560006003548210156112ed57600390527fc2575a0e9e593c00f959f8c92f12db2869c3395a3b0502d05e2516446f71f85b0155565b15611ae157565b60405162461bcd60e51b815260206004820152600b60248201526a139bdd08195e1c1a5c995960aa1b6044820152606490fd5b15611b1b57565b60405162461bcd60e51b8152602060048201526011602482015270115512081c99599d5b990819985a5b1959607a1b6044820152606490fd5b60405190611b63604083610927565b601182527010dbd91948185b1c9958591e481d5cd959607a1b6020830152565b8115611bf557421015611bc5576000526002602052611ba8604060002060ff90541690565b611bba57600190611bb761169c565b90565b600090611bb7611b54565b50600090604051611bd7604082610927565b600e81526d115e1c1a5c9e481a5b881c185cdd60921b602082015290565b5050600090604051611c08604082610927565b600d81526c10dbd919481c995c5d5a5c9959609a1b602082015290565b969491611cd29196949396611c3f600260005414156113a8565b6002600055611c4f881515611723565b611c5a428a1161175f565b611c77610d2161054a6106338b6000526002602052604060002090565b611c8287151561200f565b611cae611c8d6117dc565b91611c96611236565b338152938b6020860152600060408601523691611816565b606083015287608083015260a0820152610d72876000526001602052604060002090565b611ce9610b4b866000526002602052604060002090565b611cf285611a8f565b60005b818110611f7457505050611d13836000526001602052604060002090565b6005019160009190600290835b818110611d8357505050507f2d8109861cf2aa02a8a2028c1d46c9d5b23385a6e872bd8471cde7352f26518c91611d5b611d76923414611539565b54604080519182526020820195909552339490918291820190565b0390a361043c6001600055565b86611d8f8284876120b9565b611da68560ff611d9e846120c9565b16111561142a565b611db7611db2826120c9565b611466565b96611dc18861013b565b878603611e5d576001939291611e30611df96000805160206121c083398151915293606084013590611df4821515611500565b6120d3565b995b611e076020840161207d565b6040840135611e206060860135926107006106f9611227565b604083015260608201528b6115cb565b611e43611e3d8b54611624565b916120c9565b6040805192835260ff91909116602083015290a201611d20565b96611e6b819493929461013b565b80611ecb576001936000805160206121c083398151915291611e3090611ec660208401611eaa6001600160a01b03611ea28361207d565b161515611475565b610797610ba9606087013592611ec1841515611500565b61207d565b611dfb565b905060208301611ee56001600160a01b03611ea28361207d565b611eff610ba9610ba9604087013593611ec18515156114ba565b803b1561027657604051632142170760e11b815233600482015230602482015260448101929092526000908290606490829084905af193841561084b57611e308b936000805160206121c083398151915293600197611f5f575b50611dfb565b8061083f6000611f6e93610927565b38611f59565b600080611f8283858761205b565b81611f9a611f8f8361207d565b926020810190612087565b9190611fab60405180948193611638565b03925af1611fb76116b1565b9015611fc65750600101611cf5565b8051908161200a5760405162461bcd60e51b8152602060048201526014602482015273105c1c1c9bdd985b0818d85b1b0819985a5b195960621b6044820152606490fd5b602001fd5b1561201657565b60405162461bcd60e51b815260206004820152601b60248201527f4174206c65617374206f6e6520617373657420726571756972656400000000006044820152606490fd5b91908110156112ed5760051b81013590603e1981360301821215610276570190565b35611bb781610394565b903590601e198136030182121561027657018035906001600160401b0382116102765760200191813603831361027657565b91908110156112ed5760071b0190565b35611bb7816105ca565b9190820180921161163357565b6040516323b872dd60e01b60208201526001600160a01b03928316602482015292909116604483015260648083019390935291815261043c91612124608483610927565b612164565b60405163a9059cbb60e01b60208201526001600160a01b03909216602483015260448083019390935291815261043c91612124606483610927565b906000602091828151910182855af1156114f4576000513d6121b657506001600160a01b0381163b155b6121955750565b635274afe760e01b60009081526001600160a01b0391909116600452602490fd5b6001141561218e56fe25eda64c22ff2667da4de3ebff2a567f56d7a2766c4e0fe20da789414a7827aaa2646970667358221220d1b72846a8d28e59580b2964a1edef1df0fcb7160679fe2731594d82f0876de964736f6c634300081c0033",
  "linkReferences": {},
  "deployedLinkReferences": {}
}