{
  "_format": "hh-sol-artifact-1",
  "contractName": "GiftEscrow",
  "sourceName": "contracts/GiftEscrow.sol",
  "abi": [
    {
      "inputs": [
        {
          "internalType": "address",
          "name": "token",
          "type": "address"
        }
      ],
      "name": "SafeERC20FailedOperation",
      "type": "error"
    },
    {
      "anonymous": false,
      "inputs": [
        {
          "indexed": true,
          "internalType": "uint256",
          "name": "giftId",
          "type": "uint256"
        },
        {
          "indexed": true,
          "internalType": "address",
          "name": "claimer",
          "type": "address"
        }
      ],
      "name": "GiftClaimed",
      "type": "event"
    },
    {
      "anonymous": false,
      "inputs": [
        {
          "indexed": true,
          "internalType": "uint256",
          "name": "giftId",
          "type": "uint256"
        },
        {
          "indexed": true,
          "internalType": "address",
          "name": "claimer",
          "type": "address"
        }
      ],
      "name": "GiftClaimedWithCode",
      "type": "event"
    },
    {
      "anonymous": false,
      "inputs": [
        {
          "indexed": true,
          "internalType": "uint256",
          "name": "giftId",
          "type": "uint256"
        }
      ],
      "name": "GiftExpired",
      "type": "event"
    },
    {
      "anonymous": false,
      "inputs": [
        {
          "indexed": true,
          "internalType": "uint256",
          "name": "giftId",
          "type": "uint256"
        },
        {
          "indexed": true,
          "internalType": "address",
          "name": "sender",
          "type": "address"
        },
        {
          "indexed": false,
          "internalType": "enum GiftEscrow.AssetType",
          "name": "assetType",
          "type": "uint8"
        },
        {
          "indexed": false,
          "internalType": "address",
          "name": "tokenAddress",
          "type": "address"
        },
        {
          "indexed": false,
          "internalType": "uint256",
          "name": "tokenId",
          "type": "uint256"
        },
        {
          "indexed": false,
          "internalType": "uint256",
          "name": "amount",
          "type": "uint256"
        },
        {
          "indexed": false,
          "internalType": "uint256",
          "name": "expiryTimestamp",
          "type": "uint256"
        }
      ],
      "name": "GiftLocked",
      "type": "event"
    },
    {
      "anonymous": false,
      "inputs": [
        {
          "indexed": true,
          "internalType": "uint256",
          "name": "giftId",
          "type": "uint256"
        },
        {
          "indexed": false,
          "internalType": "string",
          "name": "message",
          "type": "string"
        },
        {
          "indexed": false,
          "internalType": "bool",
          "name": "hasCode",
          "type": "bool"
        }
      ],
      "name": "GiftMetaSet",
      "type": "event"
    },
    {
      "anonymous": false,
      "inputs": [
        {
          "indexed": true,
          "internalType": "uint256",
          "name": "giftId",
          "type": "uint256"
        },
        {
          "indexed": true,
          "internalType": "address",
          "name": "sender",
          "type": "address"
        }
      ],
      "name": "GiftSent",
      "type": "event"
    },
    {
      "inputs": [
        {
          "internalType": "uint256",
          "name": "giftId",
          "type": "uint256"
        },
        {
          "internalType": "string",
          "name": "code",
          "type": "string"
        }
      ],
      "name": "claimGiftWithCode",
      "outputs": [],
      "stateMutability": "nonpayable",
      "type": "function"
    },
    {
      "inputs": [
        {
          "internalType": "uint256",
          "name": "giftId",
          "type": "uint256"
        }
      ],
      "name": "getGift",
      "outputs": [
        {
          "internalType": "enum GiftEscrow.AssetType",
          "name": "assetType",
          "type": "uint8"
        },
        {
          "internalType": "address",
          "name": "tokenAddress",
          "type": "address"
        },
        {
          "internalType": "uint256",
          "name": "tokenId",
          "type": "uint256"
        },
        {
          "internalType": "uint256",
          "name": "amount",
          "type": "uint256"
        },
        {
          "internalType": "address",
          "name": "sender",
          "type": "address"
        },
        {
          "internalType": "uint256",
          "name": "expiryTimestamp",
          "type": "uint256"
        },
        {
          "internalType": "bool",
          "name": "claimed",
          "type": "bool"
        }
      ],
      "stateMutability": "view",
      "type": "function"
    },
    {
      "inputs": [
        {
          "internalType": "uint256",
          "name": "giftId",
          "type": "uint256"
        }
      ],
      "name": "getGiftMeta",
      "outputs": [
        {
          "internalType": "string",
          "name": "message",
          "type": "string"
        },
        {
          "internalType": "bool",
          "name": "hasCode",
          "type": "bool"
        }
      ],
      "stateMutability": "view",
      "type": "function"
    },
    {
      "inputs": [
        {
          "internalType": "uint256",
          "name": "giftId",
          "type": "uint256"
        }
      ],
      "name": "getGiftStatus",
      "outputs": [
        {
          "internalType": "bool",
          "name": "exists",
          "type": "bool"
        },
        {
          "internalType": "bool",
          "name": "claimed",
          "type": "bool"
        },
        {
          "internalType": "address",
          "name": "sender",
          "type": "address"
        },
        {
          "internalType": "uint256",
          "name": "expiryTimestamp",
          "type": "uint256"
        }
      ],
      "stateMutability": "view",
      "type": "function"
    },
    {
      "inputs": [
        {
          "internalType": "uint256",
          "name": "",
          "type": "uint256"
        }
      ],
      "name": "gifts",
      "outputs": [
        {
          "internalType": "enum GiftEscrow.AssetType",
          "name": "assetType",
          "type": "uint8"
        },
        {
          "internalType": "address",
          "name": "tokenAddress",
          "type": "address"
        },
        {
          "internalType": "uint256",
          "name": "tokenId",
          "type": "uint256"
        },
        {
          "internalType": "uint256",
          "name": "amount",
          "type": "uint256"
        },
        {
          "internalType": "address",
          "name": "sender",
          "type": "address"
        },
        {
          "internalType": "uint256",
          "name": "expiryTimestamp",
          "type": "uint256"
        },
        {
          "internalType": "bool",
          "name": "claimed",
          "type": "bool"
        },
        {
          "internalType": "string",
          "name": "message",
          "type": "string"
        },
        {
          "internalType": "bytes32",
          "name": "codeHash",
          "type": "bytes32"
        }
      ],
      "stateMutability": "view",
      "type": "function"
    },
    {
      "inputs": [
        {
          "internalType": "address",
          "name": "tokenAddress",
          "type": "address"
        },
        {
          "internalType": "uint8",
          "name": "assetType",
          "type": "uint8"
        },
        {
          "internalType": "uint256",
          "name": "tokenId",
          "type": "uint256"
        },
        {
          "internalType": "uint256",
          "name": "amount",
          "type": "uint256"
        },
        {
          "internalType": "uint256",
          "name": "expiryTimestamp",
          "type": "uint256"
        }
      ],
      "name": "lock",
      "outputs": [
        {
          "internalType": "uint256",
          "name": "giftId",
          "type": "uint256"
        }
      ],
      "stateMutability": "nonpayable",
      "type": "function"
    },
    {
      "inputs": [
        {
          "internalType": "uint8",
          "name": "assetType",
          "type": "uint8"
        },
        {
          "internalType": "address",
          "name": "tokenAddress",
          "type": "address"
        },
        {
          "internalType": "uint256",
          "name": "tokenId",
          "type": "uint256"
        },
        {
          "internalType": "uint256",
          "name": "amount",
          "type": "uint256"
        },
        {
          "internalType": "uint256",
          "name": "expiryTimestamp",
          "type": "uint256"
        }
      ],
      "name": "lockGift",
      "outputs": [
        {
          "internalType": "uint256",
          "name": "giftId",
          "type": "uint256"
        }
      ],
      "stateMutability": "nonpayable",
      "type": "function"
    },
    {
      "inputs": [
        {
          "internalType": "uint8",
          "name": "assetType",
          "type": "uint8"
        },
        {
          "internalType": "address",
          "name": "tokenAddress",
          "type": "address"
        },
        {
          "internalType": "uint256",
          "name": "tokenId",
          "type": "uint256"
        },
        {
          "internalType": "uint256",
          "name": "amount",
          "type": "uint256"
        },
        {
          "internalType": "uint256",
          "name": "expiryTimestamp",
          "type": "uint256"
        },
        {
          "internalType": "string",
          "name": "message",
          "type": "string"
        },
        {
          "internalType": "bytes32",
          "name": "codeHash",
          "type": "bytes32"
        }
      ],
      "name": "lockGiftV2",
      "outputs": [
        {
          "internalType": "uint256",
          "name": "giftId",
          "type": "uint256"
        }
      ],
      "stateMutability": "nonpayable",
      "type": "function"
    },
    {
      "inputs": [],
      "name": "nextGiftId",
      "outputs": [
        {
          "internalType": "uint256",
          "name": "",
          "type": "uint256"
        }
      ],
      "stateMutability": "view",
      "type": "function"
    },
    {
      "inputs": [
        {
          "internalType": "address",
          "name": "",
          "type": "address"
        },
        {
          "internalType": "address",
          "name": "",
          "type": "address"
        },
        {
          "internalType": "uint256",
          "name": "",
          "type": "uint256"
        },
        {
          "internalType": "bytes",
          "name": "",
          "type": "bytes"
        }
      ],
      "name": "onERC721Received",
      "outputs": [
        {
          "internalType": "bytes4",
          "name": "",
          "type": "bytes4"
        }
      ],
      "stateMutability": "pure",
      "type": "function"
    },
    {
      "inputs": [
        {
          "internalType": "uint256[]",
          "name": "ids",
          "type": "uint256[]"
        }
      ],
      "name": "refundExpired",
      "outputs": [],
      "stateMutability": "nonpayable",
      "type": "function"
    },
    {
      "inputs": [
        {
          "internalType": "address",
          "name": "tokenAddress",
          "type": "address"
        },
        {
          "internalType": "uint256",
          "name": "tokenId",
          "type": "uint256"
        },
        {
          "internalType": "uint256",
          "name": "amount",
          "type": "uint256"
        },
        {
          "internalType": "uint256",
          "name": "expiryDays",
          "type": "uint256"
        },
        {
          "internalType": "bytes32",
          "name": "codeHash",
          "type": "bytes32"
        }
      ],
      "name": "sendGift",
      "outputs": [
        {
          "internalType": "uint256",
          "name": "giftId",
          "type": "uint256"
        }
      ],
      "stateMutability": "nonpayable",
      "type": "function"
    },
    {
      "inputs": [
        {
          "internalType": "uint8",
          "name": "assetType",
          "type": "uint8"
        },
        {
          "internalType": "address",
          "name": "tokenAddress",
          "type": "address"
        },
        {
          "internalType": "uint256",
          "name": "tokenId",
          "type": "uint256"
        },
        {
          "internalType": "uint256",
          "name": "amount",
          "type": "uint256"
        },
        {
          "internalType": "uint256",
          "name": "expiryTimestamp",
          "type": "uint256"
        },
        {
          "internalType": "string",
          "name": "message",
          "type": "string"
        },
        {
          "internalType": "bytes32",
          "name": "codeHash",
          "type": "bytes32"
        }
      ],
      "name": "validateGiftForLocking",
      "outputs": [
        {
          "internalType": "bool",
          "name": "valid",
          "type": "bool"
        },
        {
          "internalType": "string",
          "name": "reason",
          "type": "string"
        }
      ],
      "stateMutability": "view",
      "type": "function"
    }
  ],
  "bytecode": "0x6080604052348015600f57600080fd5b50612c8b8061001f6000396000f3fe608060405234801561001057600080fd5b50600436106100cf5760003560e01c80639a6c767c1161008c578063c10bfefc11610066578063c10bfefc1461027b578063d6065935146102ab578063de5da0cf146102e3578063fcdd87c114610301576100cf565b80639a6c767c146101e5578063b1eef43014610215578063bf6713f614610245576100cf565b80630fb4306f146100d4578063150b7a0214610105578063280853181461013557806334bfca5c146101665780637327b11f1461018257806381abed7a146101b5575b600080fd5b6100ee60048036038101906100e99190611830565b61031d565b6040516100fc929190611908565b60405180910390f35b61011f600480360381019061011a91906119fb565b610420565b60405161012c9190611abe565b60405180910390f35b61014f600480360381019061014a9190611b9e565b610435565b60405161015d929190611c60565b60405180910390f35b610180600480360381019061017b9190611ce6565b6106a7565b005b61019c60048036038101906101979190611830565b6108e3565b6040516101ac9493929190611d51565b60405180910390f35b6101cf60048036038101906101ca9190611b9e565b61096a565b6040516101dc9190611d96565b60405180910390f35b6101ff60048036038101906101fa9190611db1565b6109cd565b60405161020c9190611d96565b60405180910390f35b61022f600480360381019061022a9190611e2c565b6109fb565b60405161023c9190611d96565b60405180910390f35b61025f600480360381019061025a9190611830565b610a15565b6040516102729796959493929190611f1e565b60405180910390f35b61029560048036038101906102909190611f8d565b610b11565b6040516102a29190611d96565b60405180910390f35b6102c560048036038101906102c09190611830565b610c83565b6040516102da99989796959493929190612017565b60405180910390f35b6102eb610db3565b6040516102f89190611d96565b60405180910390f35b61031b600480360381019061031691906120ab565b610db9565b005b606060006001548310610365576040517f08c379a000000000000000000000000000000000000000000000000000000000815260040161035c90612157565b60405180910390fd5b60008060008581526020019081526020016000209050806006016000801b82600701541415818054610396906121a6565b80601f01602080910402602001604051908101604052809291908181526020018280546103c2906121a6565b801561040f5780601f106103e45761010080835404028352916020019161040f565b820191906000526020600020905b8154815290600101906020018083116103f257829003601f168201915b505050505091509250925050915091565b600063150b7a0260e01b905095945050505050565b600060606000801b83036104845760006040518060400160405280600d81526020017f436f6465207265717569726564000000000000000000000000000000000000008152509150915061069a565b4286116104cc5760006040518060400160405280600e81526020017f45787069727920696e20706173740000000000000000000000000000000000008152509150915061069a565b6001808111156104df576104de611ea7565b5b60ff168a60ff16111561052d5760006040518060400160405280600d81526020017f42616420617373657454797065000000000000000000000000000000000000008152509150915061069a565b600073ffffffffffffffffffffffffffffffffffffffff168973ffffffffffffffffffffffffffffffffffffffff16036105a25760006040518060400160405280600e81526020017f546f6b656e2072657175697265640000000000000000000000000000000000008152509150915061069a565b60008a60ff1660018111156105ba576105b9611ea7565b5b9050600060018111156105d0576105cf611ea7565b5b8160018111156105e3576105e2611ea7565b5b0361063757600088036106325760006040518060400160405280600881526020017f416d6f756e743e30000000000000000000000000000000000000000000000000815250925092505061069a565b610682565b600089036106815760006040518060400160405280600981526020017f746f6b656e49643e300000000000000000000000000000000000000000000000815250925092505061069a565b5b60016040518060200160405280600081525092509250505b9850989650505050505050565b60005b828290508110156108de5760008383838181106106ca576106c96121d7565b5b905060200201359050600080600083815260200190815260200160002090508060050160009054906101000a900460ff1615801561070b5750806004015442115b156108cf5760018160050160006101000a81548160ff0219169083151502179055506001808111156107405761073f611ea7565b5b8160000160009054906101000a900460ff16600181111561076457610763611ea7565b5b03610829578060000160019054906101000a900473ffffffffffffffffffffffffffffffffffffffff1673ffffffffffffffffffffffffffffffffffffffff166342842e0e308360030160009054906101000a900473ffffffffffffffffffffffffffffffffffffffff1684600101546040518463ffffffff1660e01b81526004016107f293929190612206565b600060405180830381600087803b15801561080c57600080fd5b505af1158015610820573d6000803e3d6000fd5b505050506108a1565b6108a08160030160009054906101000a900473ffffffffffffffffffffffffffffffffffffffff1682600201548360000160019054906101000a900473ffffffffffffffffffffffffffffffffffffffff1673ffffffffffffffffffffffffffffffffffffffff16610f909092919063ffffffff16565b5b817f341eeae47f9328dda1696f1588862ff0d11caaef2486f22334310f556c5cffae60405160405180910390a25b505080806001019150506106aa565b505050565b6000806000806001548510610905576000806000809350935093509350610963565b6000806000878152602001908152602001600020905060018160050160009054906101000a900460ff168260030160009054906101000a900473ffffffffffffffffffffffffffffffffffffffff1683600401549450945094509450505b9193509193565b60006109bf898989898989898080601f016020809104026020016040519081016040528093929190818152602001838380828437600081840152601f19601f820116905080830192505050505050508861100f565b905098975050505050505050565b60006109f08686868686604051806020016040528060008152506000801b61100f565b905095945050505050565b6000610a0a85878686866109cd565b905095945050505050565b60008060008060008060006001548810610a64576040517f08c379a0000000000000000000000000000000000000000000000000000000008152600401610a5b90612157565b60405180910390fd5b60008060008a815260200190815260200160002090508060000160009054906101000a900460ff168160000160019054906101000a900473ffffffffffffffffffffffffffffffffffffffff16826001015483600201548460030160009054906101000a900473ffffffffffffffffffffffffffffffffffffffff1685600401548660050160009054906101000a900460ff16975097509750975097509750975050919395979092949650565b6000808311610b55576040517f08c379a0000000000000000000000000000000000000000000000000000000008152600401610b4c90612289565b60405180910390fd5b6000801b8203610b9a576040517f08c379a0000000000000000000000000000000000000000000000000000000008152600401610b91906122f5565b60405180910390fd5b60006201518084610bab9190612344565b42610bb69190612386565b90506000808711610bda5760006001811115610bd557610bd4611ea7565b5b610bee565b600180811115610bed57610bec611ea7565b5b5b90503073ffffffffffffffffffffffffffffffffffffffff166381abed7a828a8a8a878a6040518763ffffffff1660e01b8152600401610c33969594939291906123ef565b6020604051808303816000875af1158015610c52573d6000803e3d6000fd5b505050506040513d601f19601f82011682018060405250810190610c769190612478565b9250505095945050505050565b60006020528060005260406000206000915090508060000160009054906101000a900460ff16908060000160019054906101000a900473ffffffffffffffffffffffffffffffffffffffff16908060010154908060020154908060030160009054906101000a900473ffffffffffffffffffffffffffffffffffffffff16908060040154908060050160009054906101000a900460ff1690806006018054610d2a906121a6565b80601f0160208091040260200160405190810160405280929190818152602001828054610d56906121a6565b8015610da35780601f10610d7857610100808354040283529160200191610da3565b820191906000526020600020905b815481529060010190602001808311610d8657829003601f168201915b5050505050908060070154905089565b60015481565b600080600085815260200190815260200160002090508060050160009054906101000a900460ff1615610e21576040517f08c379a0000000000000000000000000000000000000000000000000000000008152600401610e18906124f1565b60405180910390fd5b8060040154421115610e68576040517f08c379a0000000000000000000000000000000000000000000000000000000008152600401610e5f9061255d565b60405180910390fd5b6000801b816007015403610eb1576040517f08c379a0000000000000000000000000000000000000000000000000000000008152600401610ea8906125c9565b60405180910390fd5b80600701548383604051602001610ec9929190612628565b6040516020818303038152906040528051906020012014610f1f576040517f08c379a0000000000000000000000000000000000000000000000000000000008152600401610f169061268d565b60405180910390fd5b60018160050160006101000a81548160ff021916908315150217905550610f46813361159c565b3373ffffffffffffffffffffffffffffffffffffffff16847f8722aae3693b9df0835a1f20f6af10c0a1b222fb6b325f1cb319deb6317177fc60405160405180910390a350505050565b61100a838473ffffffffffffffffffffffffffffffffffffffff1663a9059cbb8585604051602401610fc39291906126ad565b604051602081830303815290604052915060e01b6020820180517bffffffffffffffffffffffffffffffffffffffffffffffffffffffff83818316178352505050506116cc565b505050565b60008060001b8203611056576040517f08c379a000000000000000000000000000000000000000000000000000000000815260040161104d906122f5565b60405180910390fd5b428411611098576040517f08c379a000000000000000000000000000000000000000000000000000000000815260040161108f90612722565b60405180910390fd5b6001808111156110ab576110aa611ea7565b5b60ff168860ff1611156110f3576040517f08c379a00000000000000000000000000000000000000000000000000000000081526004016110ea9061278e565b60405180910390fd5b600073ffffffffffffffffffffffffffffffffffffffff168773ffffffffffffffffffffffffffffffffffffffff1603611162576040517f08c379a0000000000000000000000000000000000000000000000000000000008152600401611159906127fa565b60405180910390fd5b60008860ff16600181111561117a57611179611ea7565b5b9050600060018111156111905761118f611ea7565b5b8160018111156111a3576111a2611ea7565b5b0361121d57600086116111eb576040517f08c379a00000000000000000000000000000000000000000000000000000000081526004016111e290612866565b60405180910390fd5b6112183330888b73ffffffffffffffffffffffffffffffffffffffff1661176e909392919063ffffffff16565b6112d0565b60008703611260576040517f08c379a0000000000000000000000000000000000000000000000000000000008152600401611257906128d2565b60405180910390fd5b8773ffffffffffffffffffffffffffffffffffffffff166342842e0e33308a6040518463ffffffff1660e01b815260040161129d93929190612206565b600060405180830381600087803b1580156112b757600080fd5b505af11580156112cb573d6000803e3d6000fd5b505050505b600160008154809291906112e3906128f2565b91905055915060405180610120016040528082600181111561130857611307611ea7565b5b81526020018973ffffffffffffffffffffffffffffffffffffffff1681526020018881526020018781526020013373ffffffffffffffffffffffffffffffffffffffff1681526020018681526020016000151581526020018581526020018481525060008084815260200190815260200160002060008201518160000160006101000a81548160ff021916908360018111156113a7576113a6611ea7565b5b021790555060208201518160000160016101000a81548173ffffffffffffffffffffffffffffffffffffffff021916908373ffffffffffffffffffffffffffffffffffffffff160217905550604082015181600101556060820151816002015560808201518160030160006101000a81548173ffffffffffffffffffffffffffffffffffffffff021916908373ffffffffffffffffffffffffffffffffffffffff16021790555060a0820151816004015560c08201518160050160006101000a81548160ff02191690831515021790555060e082015181600601908161148d9190612b15565b5061010082015181600701559050503373ffffffffffffffffffffffffffffffffffffffff16827ff1bb6a3f726ff93f39d8735f605b77d5b6636f0bda83f1a8b5b178f7a850d039838b8b8b8b6040516114eb959493929190612be7565b60405180910390a33373ffffffffffffffffffffffffffffffffffffffff16827f651535da8b484e03677ad5bacafa84269a97bde794a1ac67ca15d16e80df589860405160405180910390a360008451118061154a57506000801b8314155b1561159057817f22995f1fd905b45b33dacf46147e0157bea3ec3085516c495df97fd7258eebd1856000801b861415604051611587929190611908565b60405180910390a25b50979650505050505050565b6001808111156115af576115ae611ea7565b5b8260000160009054906101000a900460ff1660018111156115d3576115d2611ea7565b5b03611674578160000160019054906101000a900473ffffffffffffffffffffffffffffffffffffffff1673ffffffffffffffffffffffffffffffffffffffff166342842e0e308385600101546040518463ffffffff1660e01b815260040161163d93929190612206565b600060405180830381600087803b15801561165757600080fd5b505af115801561166b573d6000803e3d6000fd5b505050506116c8565b6116c78183600201548460000160019054906101000a900473ffffffffffffffffffffffffffffffffffffffff1673ffffffffffffffffffffffffffffffffffffffff16610f909092919063ffffffff16565b5b5050565b600080602060008451602086016000885af1806116ef576040513d6000823e3d81fd5b3d92506000519150506000821461170a576001811415611726565b60008473ffffffffffffffffffffffffffffffffffffffff163b145b1561176857836040517f5274afe700000000000000000000000000000000000000000000000000000000815260040161175f9190612c3a565b60405180910390fd5b50505050565b6117ea848573ffffffffffffffffffffffffffffffffffffffff166323b872dd8686866040516024016117a393929190612206565b604051602081830303815290604052915060e01b6020820180517bffffffffffffffffffffffffffffffffffffffffffffffffffffffff83818316178352505050506116cc565b50505050565b600080fd5b600080fd5b6000819050919050565b61180d816117fa565b811461181857600080fd5b50565b60008135905061182a81611804565b92915050565b600060208284031215611846576118456117f0565b5b60006118548482850161181b565b91505092915050565b600081519050919050565b600082825260208201905092915050565b60005b8381101561189757808201518184015260208101905061187c565b60008484015250505050565b6000601f19601f8301169050919050565b60006118bf8261185d565b6118c98185611868565b93506118d9818560208601611879565b6118e2816118a3565b840191505092915050565b60008115159050919050565b611902816118ed565b82525050565b6000604082019050818103600083015261192281856118b4565b905061193160208301846118f9565b9392505050565b600073ffffffffffffffffffffffffffffffffffffffff82169050919050565b600061196382611938565b9050919050565b61197381611958565b811461197e57600080fd5b50565b6000813590506119908161196a565b92915050565b600080fd5b600080fd5b600080fd5b60008083601f8401126119bb576119ba611996565b5b8235905067ffffffffffffffff8111156119d8576119d761199b565b5b6020830191508360018202830111156119f4576119f36119a0565b5b9250929050565b600080600080600060808688031215611a1757611a166117f0565b5b6000611a2588828901611981565b9550506020611a3688828901611981565b9450506040611a478882890161181b565b935050606086013567ffffffffffffffff811115611a6857611a676117f5565b5b611a74888289016119a5565b92509250509295509295909350565b60007fffffffff0000000000000000000000000000000000000000000000000000000082169050919050565b611ab881611a83565b82525050565b6000602082019050611ad36000830184611aaf565b92915050565b600060ff82169050919050565b611aef81611ad9565b8114611afa57600080fd5b50565b600081359050611b0c81611ae6565b92915050565b60008083601f840112611b2857611b27611996565b5b8235905067ffffffffffffffff811115611b4557611b4461199b565b5b602083019150836001820283011115611b6157611b606119a0565b5b9250929050565b6000819050919050565b611b7b81611b68565b8114611b8657600080fd5b50565b600081359050611b9881611b72565b92915050565b60008060008060008060008060e0898b031215611bbe57611bbd6117f0565b5b6000611bcc8b828c01611afd565b9850506020611bdd8b828c01611981565b9750506040611bee8b828c0161181b565b9650506060611bff8b828c0161181b565b9550506080611c108b828c0161181b565b94505060a089013567ffffffffffffffff811115611c3157611c306117f5565b5b611c3d8b828c01611b12565b935093505060c0611c508b828c01611b89565b9150509295985092959890939650565b6000604082019050611c7560008301856118f9565b8181036020830152611c8781846118b4565b90509392505050565b60008083601f840112611ca657611ca5611996565b5b8235905067ffffffffffffffff811115611cc357611cc261199b565b5b602083019150836020820283011115611cdf57611cde6119a0565b5b9250929050565b60008060208385031215611cfd57611cfc6117f0565b5b600083013567ffffffffffffffff811115611d1b57611d1a6117f5565b5b611d2785828601611c90565b92509250509250929050565b611d3c81611958565b82525050565b611d4b816117fa565b82525050565b6000608082019050611d6660008301876118f9565b611d7360208301866118f9565b611d806040830185611d33565b611d8d6060830184611d42565b95945050505050565b6000602082019050611dab6000830184611d42565b92915050565b600080600080600060a08688031215611dcd57611dcc6117f0565b5b6000611ddb88828901611afd565b9550506020611dec88828901611981565b9450506040611dfd8882890161181b565b9350506060611e0e8882890161181b565b9250506080611e1f8882890161181b565b9150509295509295909350565b600080600080600060a08688031215611e4857611e476117f0565b5b6000611e5688828901611981565b9550506020611e6788828901611afd565b9450506040611e788882890161181b565b9350506060611e898882890161181b565b9250506080611e9a8882890161181b565b9150509295509295909350565b7f4e487b7100000000000000000000000000000000000000000000000000000000600052602160045260246000fd5b60028110611ee757611ee6611ea7565b5b50565b6000819050611ef882611ed6565b919050565b6000611f0882611eea565b9050919050565b611f1881611efd565b82525050565b600060e082019050611f33600083018a611f0f565b611f406020830189611d33565b611f4d6040830188611d42565b611f5a6060830187611d42565b611f676080830186611d33565b611f7460a0830185611d42565b611f8160c08301846118f9565b98975050505050505050565b600080600080600060a08688031215611fa957611fa86117f0565b5b6000611fb788828901611981565b9550506020611fc88882890161181b565b9450506040611fd98882890161181b565b9350506060611fea8882890161181b565b9250506080611ffb88828901611b89565b9150509295509295909350565b61201181611b68565b82525050565b60006101208201905061202d600083018c611f0f565b61203a602083018b611d33565b612047604083018a611d42565b6120546060830189611d42565b6120616080830188611d33565b61206e60a0830187611d42565b61207b60c08301866118f9565b81810360e083015261208d81856118b4565b905061209d610100830184612008565b9a9950505050505050505050565b6000806000604084860312156120c4576120c36117f0565b5b60006120d28682870161181b565b935050602084013567ffffffffffffffff8111156120f3576120f26117f5565b5b6120ff86828701611b12565b92509250509250925092565b7f4e6f206769667400000000000000000000000000000000000000000000000000600082015250565b6000612141600783611868565b915061214c8261210b565b602082019050919050565b6000602082019050818103600083015261217081612134565b9050919050565b7f4e487b7100000000000000000000000000000000000000000000000000000000600052602260045260246000fd5b600060028204905060018216806121be57607f821691505b6020821081036121d1576121d0612177565b5b50919050565b7f4e487b7100000000000000000000000000000000000000000000000000000000600052603260045260246000fd5b600060608201905061221b6000830186611d33565b6122286020830185611d33565b6122356040830184611d42565b949350505050565b7f457870697279446179733e300000000000000000000000000000000000000000600082015250565b6000612273600c83611868565b915061227e8261223d565b602082019050919050565b600060208201905081810360008301526122a281612266565b9050919050565b7f436f646520726571756972656400000000000000000000000000000000000000600082015250565b60006122df600d83611868565b91506122ea826122a9565b602082019050919050565b6000602082019050818103600083015261230e816122d2565b9050919050565b7f4e487b7100000000000000000000000000000000000000000000000000000000600052601160045260246000fd5b600061234f826117fa565b915061235a836117fa565b9250828202612368816117fa565b9150828204841483151761237f5761237e612315565b5b5092915050565b6000612391826117fa565b915061239c836117fa565b92508282019050808211156123b4576123b3612315565b5b92915050565b6123c381611ad9565b82525050565b50565b60006123d9600083611868565b91506123e4826123c9565b600082019050919050565b600060e08201905061240460008301896123ba565b6124116020830188611d33565b61241e6040830187611d42565b61242b6060830186611d42565b6124386080830185611d42565b81810360a0830152612449816123cc565b905061245860c0830184612008565b979650505050505050565b60008151905061247281611804565b92915050565b60006020828403121561248e5761248d6117f0565b5b600061249c84828501612463565b91505092915050565b7f416c726561647920636c61696d65640000000000000000000000000000000000600082015250565b60006124db600f83611868565b91506124e6826124a5565b602082019050919050565b6000602082019050818103600083015261250a816124ce565b9050919050565b7f4578706972656400000000000000000000000000000000000000000000000000600082015250565b6000612547600783611868565b915061255282612511565b602082019050919050565b600060208201905081810360008301526125768161253a565b9050919050565b7f4e6f20636f646520736574000000000000000000000000000000000000000000600082015250565b60006125b3600b83611868565b91506125be8261257d565b602082019050919050565b600060208201905081810360008301526125e2816125a6565b9050919050565b600081905092915050565b82818337600083830152505050565b600061260f83856125e9565b935061261c8385846125f4565b82840190509392505050565b6000612635828486612603565b91508190509392505050565b7f496e76616c696420636f64650000000000000000000000000000000000000000600082015250565b6000612677600c83611868565b915061268282612641565b602082019050919050565b600060208201905081810360008301526126a68161266a565b9050919050565b60006040820190506126c26000830185611d33565b6126cf6020830184611d42565b9392505050565b7f45787069727920696e2070617374000000000000000000000000000000000000600082015250565b600061270c600e83611868565b9150612717826126d6565b602082019050919050565b6000602082019050818103600083015261273b816126ff565b9050919050565b7f4261642061737365745479706500000000000000000000000000000000000000600082015250565b6000612778600d83611868565b915061278382612742565b602082019050919050565b600060208201905081810360008301526127a78161276b565b9050919050565b7f546f6b656e207265717569726564000000000000000000000000000000000000600082015250565b60006127e4600e83611868565b91506127ef826127ae565b602082019050919050565b60006020820190508181036000830152612813816127d7565b9050919050565b7f416d6f756e743e30000000000000000000000000000000000000000000000000600082015250565b6000612850600883611868565b915061285b8261281a565b602082019050919050565b6000602082019050818103600083015261287f81612843565b9050919050565b7f746f6b656e49643e300000000000000000000000000000000000000000000000600082015250565b60006128bc600983611868565b91506128c782612886565b602082019050919050565b600060208201905081810360008301526128eb816128af565b9050919050565b60006128fd826117fa565b91507fffffffffffffffffffffffffffffffffffffffffffffffffffffffffffffffff820361292f5761292e612315565b5b600182019050919050565b7f4e487b7100000000000000000000000000000000000000000000000000000000600052604160045260246000fd5b60008190508160005260206000209050919050565b60006020601f8301049050919050565b600082821b905092915050565b6000600883026129cb7fffffffffffffffffffffffffffffffffffffffffffffffffffffffffffffffff8261298e565b6129d5868361298e565b95508019841693508086168417925050509392505050565b6000819050919050565b6000612a12612a0d612a08846117fa565b6129ed565b6117fa565b9050919050565b6000819050919050565b612a2c836129f7565b612a40612a3882612a19565b84845461299b565b825550505050565b600090565b612a55612a48565b612a60818484612a23565b505050565b5b81811015612a8457612a79600082612a4d565b600181019050612a66565b5050565b601f821115612ac957612a9a81612969565b612aa38461297e565b81016020851015612ab2578190505b612ac6612abe8561297e565b830182612a65565b50505b505050565b600082821c905092915050565b6000612aec60001984600802612ace565b1980831691505092915050565b6000612b058383612adb565b9150826002028217905092915050565b612b1e8261185d565b67ffffffffffffffff811115612b3757612b3661293a565b5b612b4182546121a6565b612b4c828285612a88565b600060209050601f831160018114612b7f5760008415612b6d578287015190505b612b778582612af9565b865550612bdf565b601f198416612b8d86612969565b60005b82811015612bb557848901518255600182019150602085019450602081019050612b90565b86831015612bd25784890151612bce601f891682612adb565b8355505b6001600288020188555050505b505050505050565b600060a082019050612bfc6000830188611f0f565b612c096020830187611d33565b612c166040830186611d42565b612c236060830185611d42565b612c306080830184611d42565b9695505050505050565b6000602082019050612c4f6000830184611d33565b9291505056fea264697066735822122088703dacb15714bcce32f40e55894fd09858cd43a709e471c2a87f72ba0f3c9764736f6c634300081c0033",
  "linkReferences": {},
  "deployedLinkReferences": {}
}