{
  "_format": "hh-sol-artifact-1",
  "contractName": "GiftEscrow",
  "sourceName": "contracts/GiftEscrow.sol",
  "abi": [
    {
      "inputs": [],
      "stateMutability": "nonpayable",
      "type": "constructor"
    },
    {
      "inputs": [
        {
          "internalType": "address",
          "name": "token",
          "type": "address"
        }
      ],
      "name": "SafeERC20FailedOperation",
      "type": "error"
    },
    {
      "anonymous": false,
      "inputs": [
        {
          "indexed": true,
          "internalType": "bytes32",
          "name": "codeHash",
          "type": "bytes32"
        },
        {
          "indexed": false,
          "internalType": "uint256",
          "name": "assetIndex",
          "type": "uint256"
        },
        {
          "indexed": false,
          "internalType": "uint8",
          "name": "assetType",
          "type": "uint8"
        }
      ],
      "name": "AssetAddedToGiftPack",
      "type": "event"
    },
    {
      "anonymous": false,
      "inputs": [
        {
          "indexed": true,
          "internalType": "bytes32",
          "name": "codeHash",
          "type": "bytes32"
        },
        {
          "indexed": true,
          "internalType": "address",
          "name": "claimer",
          "type": "address"
        }
      ],
      "name": "GiftPackClaimed",
      "type": "event"
    },
    {
      "anonymous": false,
      "inputs": [
        {
          "indexed": true,
          "internalType": "bytes32",
          "name": "codeHash",
          "type": "bytes32"
        }
      ],
      "name": "GiftPackExpired",
      "type": "event"
    },
    {
      "anonymous": false,
      "inputs": [
        {
          "indexed": true,
          "internalType": "bytes32",
          "name": "codeHash",
          "type": "bytes32"
        },
        {
          "indexed": true,
          "internalType": "address",
          "name": "sender",
          "type": "address"
        },
        {
          "indexed": false,
          "internalType": "uint256",
          "name": "assetCount",
          "type": "uint256"
        },
        {
          "indexed": false,
          "internalType": "uint256",
          "name": "expiryTimestamp",
          "type": "uint256"
        }
      ],
      "name": "GiftPackLocked",
      "type": "event"
    },
    {
      "inputs": [
        {
          "internalType": "bytes32",
          "name": "codeHash",
          "type": "bytes32"
        },
        {
          "internalType": "uint8",
          "name": "assetType",
          "type": "uint8"
        },
        {
          "internalType": "address",
          "name": "tokenAddress",
          "type": "address"
        },
        {
          "internalType": "uint256",
          "name": "tokenId",
          "type": "uint256"
        },
        {
          "internalType": "uint256",
          "name": "amount",
          "type": "uint256"
        }
      ],
      "name": "addAssetToGiftPack",
      "outputs": [],
      "stateMutability": "payable",
      "type": "function"
    },
    {
      "inputs": [
        {
          "internalType": "uint256",
          "name": "",
          "type": "uint256"
        }
      ],
      "name": "allCodeHashes",
      "outputs": [
        {
          "internalType": "bytes32",
          "name": "",
          "type": "bytes32"
        }
      ],
      "stateMutability": "view",
      "type": "function"
    },
    {
      "inputs": [
        {
          "internalType": "bytes32",
          "name": "codeHash",
          "type": "bytes32"
        },
        {
          "internalType": "string",
          "name": "code",
          "type": "string"
        }
      ],
      "name": "claimGiftPackWithCode",
      "outputs": [],
      "stateMutability": "nonpayable",
      "type": "function"
    },
    {
      "inputs": [
        {
          "internalType": "bytes32",
          "name": "",
          "type": "bytes32"
        }
      ],
      "name": "codeHashExists",
      "outputs": [
        {
          "internalType": "bool",
          "name": "",
          "type": "bool"
        }
      ],
      "stateMutability": "view",
      "type": "function"
    },
    {
      "inputs": [
        {
          "internalType": "bytes32",
          "name": "codeHash",
          "type": "bytes32"
        }
      ],
      "name": "codeHashExistsCheck",
      "outputs": [
        {
          "internalType": "bool",
          "name": "exists",
          "type": "bool"
        }
      ],
      "stateMutability": "view",
      "type": "function"
    },
    {
      "inputs": [
        {
          "internalType": "uint256",
          "name": "expiryTimestamp",
          "type": "uint256"
        },
        {
          "internalType": "string",
          "name": "message",
          "type": "string"
        },
        {
          "internalType": "bytes32",
          "name": "codeHash",
          "type": "bytes32"
        }
      ],
      "name": "createGiftPack",
      "outputs": [
        {
          "internalType": "bytes32",
          "name": "",
          "type": "bytes32"
        }
      ],
      "stateMutability": "nonpayable",
      "type": "function"
    },
    {
      "inputs": [],
      "name": "getAllCodeHashes",
      "outputs": [
        {
          "internalType": "bytes32[]",
          "name": "codeHashes",
          "type": "bytes32[]"
        }
      ],
      "stateMutability": "view",
      "type": "function"
    },
    {
      "inputs": [
        {
          "internalType": "bytes32",
          "name": "codeHash",
          "type": "bytes32"
        },
        {
          "internalType": "uint256",
          "name": "index",
          "type": "uint256"
        }
      ],
      "name": "getAssetByIndex",
      "outputs": [
        {
          "components": [
            {
              "internalType": "enum GiftEscrow.AssetType",
              "name": "assetType",
              "type": "uint8"
            },
            {
              "internalType": "address",
              "name": "tokenAddress",
              "type": "address"
            },
            {
              "internalType": "uint256",
              "name": "tokenId",
              "type": "uint256"
            },
            {
              "internalType": "uint256",
              "name": "amount",
              "type": "uint256"
            }
          ],
          "internalType": "struct GiftEscrow.Asset",
          "name": "asset",
          "type": "tuple"
        }
      ],
      "stateMutability": "view",
      "type": "function"
    },
    {
      "inputs": [
        {
          "internalType": "bytes32",
          "name": "codeHash",
          "type": "bytes32"
        }
      ],
      "name": "getGiftPackAssets",
      "outputs": [
        {
          "components": [
            {
              "internalType": "enum GiftEscrow.AssetType",
              "name": "assetType",
              "type": "uint8"
            },
            {
              "internalType": "address",
              "name": "tokenAddress",
              "type": "address"
            },
            {
              "internalType": "uint256",
              "name": "tokenId",
              "type": "uint256"
            },
            {
              "internalType": "uint256",
              "name": "amount",
              "type": "uint256"
            }
          ],
          "internalType": "struct GiftEscrow.Asset[]",
          "name": "assets",
          "type": "tuple[]"
        }
      ],
      "stateMutability": "view",
      "type": "function"
    },
    {
      "inputs": [
        {
          "internalType": "bytes32",
          "name": "codeHash",
          "type": "bytes32"
        }
      ],
      "name": "getGiftPackDetails",
      "outputs": [
        {
          "internalType": "address",
          "name": "sender",
          "type": "address"
        },
        {
          "internalType": "uint256",
          "name": "expiryTimestamp",
          "type": "uint256"
        },
        {
          "internalType": "bool",
          "name": "claimed",
          "type": "bool"
        },
        {
          "internalType": "string",
          "name": "message",
          "type": "string"
        },
        {
          "internalType": "uint256",
          "name": "assetCount",
          "type": "uint256"
        }
      ],
      "stateMutability": "view",
      "type": "function"
    },
    {
      "inputs": [
        {
          "internalType": "uint256",
          "name": "",
          "type": "uint256"
        }
      ],
      "name": "giftIdToCodeHash",
      "outputs": [
        {
          "internalType": "bytes32",
          "name": "",
          "type": "bytes32"
        }
      ],
      "stateMutability": "view",
      "type": "function"
    },
    {
      "inputs": [
        {
          "internalType": "bytes32",
          "name": "",
          "type": "bytes32"
        }
      ],
      "name": "giftPacks",
      "outputs": [
        {
          "internalType": "address",
          "name": "sender",
          "type": "address"
        },
        {
          "internalType": "uint256",
          "name": "expiryTimestamp",
          "type": "uint256"
        },
        {
          "internalType": "bool",
          "name": "claimed",
          "type": "bool"
        },
        {
          "internalType": "string",
          "name": "message",
          "type": "string"
        },
        {
          "internalType": "bytes32",
          "name": "codeHash",
          "type": "bytes32"
        }
      ],
      "stateMutability": "view",
      "type": "function"
    },
    {
      "inputs": [
        {
          "internalType": "bytes32",
          "name": "codeHash",
          "type": "bytes32"
        }
      ],
      "name": "lockGiftPack",
      "outputs": [],
      "stateMutability": "nonpayable",
      "type": "function"
    },
    {
      "inputs": [],
      "name": "nextGiftId",
      "outputs": [
        {
          "internalType": "uint256",
          "name": "",
          "type": "uint256"
        }
      ],
      "stateMutability": "view",
      "type": "function"
    },
    {
      "inputs": [
        {
          "internalType": "address",
          "name": "",
          "type": "address"
        },
        {
          "internalType": "address",
          "name": "",
          "type": "address"
        },
        {
          "internalType": "uint256",
          "name": "",
          "type": "uint256"
        },
        {
          "internalType": "bytes",
          "name": "",
          "type": "bytes"
        }
      ],
      "name": "onERC721Received",
      "outputs": [
        {
          "internalType": "bytes4",
          "name": "",
          "type": "bytes4"
        }
      ],
      "stateMutability": "pure",
      "type": "function"
    },
    {
      "inputs": [
        {
          "internalType": "bytes32",
          "name": "codeHash",
          "type": "bytes32"
        }
      ],
      "name": "refundExpiredGiftPack",
      "outputs": [],
      "stateMutability": "nonpayable",
      "type": "function"
    },
    {
      "inputs": [
        {
          "internalType": "uint256",
          "name": "expiryTimestamp",
          "type": "uint256"
        },
        {
          "internalType": "bytes32",
          "name": "codeHash",
          "type": "bytes32"
        }
      ],
      "name": "validateGiftPackForLocking",
      "outputs": [
        {
          "internalType": "bool",
          "name": "valid",
          "type": "bool"
        },
        {
          "internalType": "string",
          "name": "reason",
          "type": "string"
        }
      ],
      "stateMutability": "view",
      "type": "function"
    },
    {
      "stateMutability": "payable",
      "type": "receive"
    }
  ],
  "bytecode": "0x60808060405234601a5760016000556119bd90816100208239f35b600080fdfe6080604052600436101561001b575b361561001957600080fd5b005b6000803560e01c806306d495bc146111ac57806307763e58146111825780630b495bf3146110f9578063150b7a02146110a15780632614d4ce14610fe75780632746eac714610f3f578063487dd9e214610c1c57806362c56a9314610be25780636340caa014610b655780636729b237146108e35780637cb441791461048c5780638434e480146101fb578063a9218b2b1461022a578063a9caf153146101fb578063afe60c5c146101b8578063cce27548146101025763de5da0cf146100e2575061000e565b346100ff57806003193601126100ff576020600454604051908152f35b80fd5b50346100ff57806003193601126100ff5760405180602060035491828152018091600385527fc2575a0e9e593c00f959f8c92f12db2869c3395a3b0502d05e2516446f71f85b90855b8181106101a2575050508261016191038361142f565b604051928392602084019060208552518091526040840192915b818110610189575050500390f35b825184528594506020938401939092019160010161017b565b825484526020909301926001928301920161014b565b50346100ff5760403660031901126100ff576101d8602435600435611819565b906101f7604051928392151583526040602084015260408301906112f2565b0390f35b50346100ff5760203660031901126100ff5760ff60406020926004358152600284522054166040519015158152f35b50346100ff5760203660031901126100ff5760043561024d60028354141561167e565b60028255808252600260205261026960ff6040842054166114f5565b80825260016020526040822060028101805461028860ff8216156115c8565b6001830154421115610459576001906102aa828060a01b038554163314611606565b60ff191617905560058101835b815481101561042b576102ca81836115ac565b5060ff81541660038110156104175786906001810361037e57509060018060a01b03815460081c16906001808060a01b03875416910154823b1561037a57604051632142170760e11b81523060048201526001600160a01b0392909216602483015260448201529082908290606490829084905af1801561036f57610356575b50506001905b016102b7565b816103609161142f565b61036b57843861034a565b8480fd5b6040513d84823e3d90fd5b8380fd5b6103b2575080548454600290920154600193926103ad926001600160a01b039182169160089190911c166118e5565b610350565b80808093600260018060a01b03895416910154905af16103d06117e9565b50156103de57600190610350565b60405162461bcd60e51b8152602060048201526011602482015270115512081c99599d5b990819985a5b1959607a1b6044820152606490fd5b634e487b7160e01b87526021600452602487fd5b5050507fb8b42d37ea6eb7e8c47225f06e29e670a49fb17af2aacc4be5e36621aea282478280a26001815580f35b60405162461bcd60e51b815260206004820152600b60248201526a139bdd08195e1c1a5c995960aa1b6044820152606490fd5b50346100ff5760603660031901126100ff576004359060243567ffffffffffffffff81116108df576104c2903690600401611364565b91906044359283156108aa574285111561087457838352600260205260ff60408420541661083b57602094604051926104fb878561142f565b8484526040519260c0840184811067ffffffffffffffff821117610823576040523384528784019283526040840190868252610536816117cd565b92610544604051948561142f565b8184523682820111610837578188928b92838701378401015260608401918252608084019287845260a0850195865287875260018952604087209460018060a01b039051166bffffffffffffffffffffffff60a01b865416178555516001850155600284019051151560ff8019835416911617905560038301905180519067ffffffffffffffff8211610823576105db83546113c3565b601f81116107e0575b508890601f8311600114610778576005959493929188918361076d575b50508160011b916000199060031b1c19161790555b51600482015501905190815191600160401b831161075957859082548484558085106106db575b50019083528483208584925b8484106106bc575085858181526002835260408120600160ff19825416179055600354600160401b8110156106a8578060016106889201600355611392565b815460001960039290921b91821b19169084901b17905550604051908152f35b634e487b7160e01b82526041600452602482fd5b600191816106cd600393518661177e565b019201920191908690610649565b80919250600302906003820403610745578360030260038104850361073157838652878620889392810191015b818110610715575061063d565b8681556001810187905560028101879055889350600301610708565b634e487b7160e01b86526011600452602486fd5b634e487b7160e01b85526011600452602485fd5b634e487b7160e01b84526041600452602484fd5b015190503880610601565b8388528988209190601f198416895b8c8282106107ca57505091600193918560059998979694106107b1575b505050811b019055610616565b015160001960f88460031b161c191690553880806107a4565b6001859682939686015181550195019301610787565b838852898820601f840160051c8101918b8510610819575b601f0160051c01905b81811061080e57506105e4565b888155600101610801565b90915081906107f8565b634e487b7160e01b87526041600452602487fd5b8780fd5b60405162461bcd60e51b815260206004820152601160248201527010dbd91948185b1c9958591e481d5cd959607a1b6044820152606490fd5b60405162461bcd60e51b815260206004820152600e60248201526d115e1c1a5c9e481a5b881c185cdd60921b6044820152606490fd5b60405162461bcd60e51b815260206004820152600d60248201526c10dbd919481c995c5d5a5c9959609a1b6044820152606490fd5b5080fd5b50346100ff5760403660031901126100ff5760043560243567ffffffffffffffff8111610a605761091982913690600401611364565b61092760028654141561167e565b60028555828552600260205261094360ff6040872054166114f5565b61096a6020604051838194838301968737810188838201520301601f19810183528261142f565b51902003610b3157808252600160205260408220600281016001600582549361099660ff8616156115c8565b6109a5838201544211156116ca565b01926109b38454151561163e565b60ff1916179055825b8154811015610b02576109cf81836115ac565b5060ff8154166003811015610aee57859060018103610a6457508154600190920154909160081c6001600160a01b0316803b15610a6057604051632142170760e11b8152306004820152336024820152604481019290925282908290606490829084905af1801561036f57610a4b575b50506001905b016109bc565b81610a559161142f565b61037a578338610a3f565b8280fd5b610a925750805460029091015460019291610a8d9190339060081c6001600160a01b03166118e5565b610a45565b8080600281940154335af1610aa56117e9565b5015610ab357600190610a45565b60405162461bcd60e51b8152602060048201526013602482015272115512081d1c985b9cd9995c8819985a5b1959606a1b6044820152606490fd5b634e487b7160e01b86526021600452602486fd5b505033907f65840200ead5fceefc7c15e974090667076408b430c0804ae61a5068e0eeb77a8380a36001815580f35b60405162461bcd60e51b815260206004820152600c60248201526b496e76616c696420636f646560a01b6044820152606490fd5b50346100ff5760203660031901126100ff57604090600435815260016020522060018060a01b03815416600182015491610bd860ff600283015416916004610baf60038301611451565b91015492604051958695865260208601521515604085015260a0606085015260a08401906112f2565b9060808301520390f35b50346100ff5760203660031901126100ff57600435906003548210156100ff576020610c0d83611392565b90549060031b1c604051908152f35b5060a03660031901126100ff5760043560243560ff8116809103610a60576044356001600160a01b0381169081900361037a5760643590608435610c6460028754141561167e565b600286558486526002602052610c8060ff6040882054166114f5565b848652600160205260408620610c9d60ff600283015416156115c8565b610cac600182015442106116ca565b610cc060018060a01b038254163314611606565b60028511610f0a5760038510156104175760028503610e0057610ce4821515611745565b813403610dc4576005905b019260405192610cfe846113fd565b610d088685611537565b6020840152604083015260608201528154600160401b811015610db057806001610d3592018455836115ac565b610d9c5790610d439161177e565b54600019810191908211610d88577f25eda64c22ff2667da4de3ebff2a567f56d7a2766c4e0fe20da789414a7827aa9160409182519182526020820152a26001815580f35b634e487b7160e01b84526011600452602484fd5b634e487b7160e01b86526004869052602486fd5b634e487b7160e01b86526041600452602486fd5b60405162461bcd60e51b8152602060048201526014602482015273125b98dbdc9c9958dd0811551208185b5bdd5b9d60621b6044820152606490fd5b84610e5e57600590610e13841515611700565b610e1e831515611745565b6040516323b872dd60e01b602082015233602482015230604482015260648082018590528152610e5990610e5360848261142f565b85611920565b610cef565b610e69831515611700565b8315610ed757823b15610ed357604051632142170760e11b815233600482015230602482015260448101859052878160648183885af18015610ec857610eb3575b50600590610cef565b96610ec1816005939961142f565b9690610eaa565b6040513d8a823e3d90fd5b8680fd5b60405162461bcd60e51b815260206004820152600b60248201526a0746f6b656e4964203e20360ac1b6044820152606490fd5b60405162461bcd60e51b815260206004820152600d60248201526c4261642061737365745479706560981b6044820152606490fd5b50346100ff5760203660031901126100ff576004358082526002602052610f6c60ff6040842054166114f5565b80825260016020526040822090610f8a60ff600284015416156115c8565b610f9e60018060a01b038354163314611606565b6001600583015492610fb184151561163e565b015460405192835260208301527f2d8109861cf2aa02a8a2028c1d46c9d5b23385a6e872bd8471cde7352f26518c60403393a380f35b50346100ff5760403660031901126100ff5760056040600435926024359361100d611587565b50808252600260205261102560ff84842054166114f5565b81526001602052200190815481101561105c5761104761104d916080936115ac565b50611543565b61105a60405180926112a7565bf35b60405162461bcd60e51b815260206004820152601960248201527f417373657420696e646578206f7574206f6620626f756e6473000000000000006044820152606490fd5b50346100ff5760803660031901126100ff576110bb611333565b506110c461134e565b5060643567ffffffffffffffff81116108df576110e5903690600401611364565b5050604051630a85bd0160e11b8152602090f35b50346100ff5760203660031901126100ff57604090600435808252600260205261112860ff84842054166114f5565b815260016020522060018060a01b03815416600182015491610bd860ff60028301541661115c600360058501549401611451565b90604051958695865260208601521515604085015260a0606085015260a08401906112f2565b50346100ff5760203660031901126100ff5760406020916004358152600583522054604051908152f35b50346100ff5760203660031901126100ff5760043580825260026020526111d960ff6040842054166114f5565b8152600160205260056040822001805467ffffffffffffffff81116112935760208160051b019061120d604051928361142f565b80825260208201809385526020852085915b83831061127557868587604051928392602084019060208552518091526040840192915b818110611251575050500390f35b91935091602060808261126760019488516112a7565b019401910191849392611243565b6003602060019261128585611543565b81520192019201919061121f565b634e487b7160e01b83526041600452602483fd5b805160038110156112dc5782526020808201516001600160a01b03169083015260408082015190830152606090810151910152565b634e487b7160e01b600052602160045260246000fd5b919082519283825260005b84811061131e575050826000602080949584010152601f8019910116010190565b806020809284010151828286010152016112fd565b600435906001600160a01b038216820361134957565b600080fd5b602435906001600160a01b038216820361134957565b9181601f840112156113495782359167ffffffffffffffff8311611349576020838186019501011161134957565b6003548110156113ad57600360005260206000200190600090565b634e487b7160e01b600052603260045260246000fd5b90600182811c921680156113f3575b60208310146113dd57565b634e487b7160e01b600052602260045260246000fd5b91607f16916113d2565b6080810190811067ffffffffffffffff82111761141957604052565b634e487b7160e01b600052604160045260246000fd5b90601f8019910116810190811067ffffffffffffffff82111761141957604052565b9060405191826000825492611465846113c3565b80845293600181169081156114d3575060011461148c575b5061148a9250038361142f565b565b90506000929192526020600020906000915b8183106114b757505090602061148a928201013861147d565b602091935080600191548385890101520191019091849261149e565b90506020925061148a94915060ff191682840152151560051b8201013861147d565b156114fc57565b60405162461bcd60e51b815260206004820152601360248201527211da599d081c1858dac81b9bdd08199bdd5b99606a1b6044820152606490fd5b60038210156112dc5752565b90604051611550816113fd565b606060028294805461156560ff821686611537565b60081c6001600160a01b03166020850152600181015460408501520154910152565b60405190611594826113fd565b60006060838281528260208201528260408201520152565b80548210156113ad576000526003602060002091020190600090565b156115cf57565b60405162461bcd60e51b815260206004820152600f60248201526e105b1c9958591e4818db185a5b5959608a1b6044820152606490fd5b1561160d57565b60405162461bcd60e51b81526020600482015260096024820152682737ba1037bbb732b960b91b6044820152606490fd5b1561164557565b60405162461bcd60e51b81526020600482015260116024820152704e6f2061737365747320696e207061636b60781b6044820152606490fd5b1561168557565b60405162461bcd60e51b815260206004820152601f60248201527f5265656e7472616e637947756172643a207265656e7472616e742063616c6c006044820152606490fd5b156116d157565b60405162461bcd60e51b8152602060048201526007602482015266115e1c1a5c995960ca1b6044820152606490fd5b1561170757565b60405162461bcd60e51b8152602060048201526016602482015275151bdad95b881859191c995cdcc81c995c5d5a5c995960521b6044820152606490fd5b1561174c57565b60405162461bcd60e51b815260206004820152600a6024820152690416d6f756e74203e20360b41b6044820152606490fd5b90805160038110156112dc5782546020830151610100600160a81b0360089190911b1660ff929092166001600160a81b0319909116171782556040810151600183015560600151600290910155565b67ffffffffffffffff811161141957601f01601f191660200190565b3d15611814573d906117fa826117cd565b91611808604051938461142f565b82523d6000602084013e565b606090565b81156118b55742101561188557600052600260205260ff604060002054166118535760019060405161184c60208261142f565b6000815290565b60009060405161186460408261142f565b601181527010dbd91948185b1c9958591e481d5cd959607a1b602082015290565b5060009060405161189760408261142f565b600e81526d115e1c1a5c9e481a5b881c185cdd60921b602082015290565b50506000906040516118c860408261142f565b600d81526c10dbd919481c995c5d5a5c9959609a1b602082015290565b60405163a9059cbb60e01b60208201526001600160a01b03909216602483015260448083019390935291815261148a9161192060648361142f565b906000602091828151910182855af11561197b576000513d61197257506001600160a01b0381163b155b6119515750565b635274afe760e01b60009081526001600160a01b0391909116600452602490fd5b6001141561194a565b6040513d6000823e3d90fdfea2646970667358221220e44f648ed7cbc51d8057afa9bdefd4fc9dfb6a1acb2ab25ffd843583fd22150164736f6c634300081c0033",
  "linkReferences": {},
  "deployedLinkReferences": {}
}