{
  "_format": "hh-sol-artifact-1",
  "contractName": "GiftEscrow",
  "sourceName": "contracts/GiftEscrow.sol",
  "abi": [
    {
      "inputs": [],
      "name": "ReentrancyGuardReentrantCall",
      "type": "error"
    },
    {
      "inputs": [
        {
          "internalType": "address",
          "name": "token",
          "type": "address"
        }
      ],
      "name": "SafeERC20FailedOperation",
      "type": "error"
    },
    {
      "anonymous": false,
      "inputs": [
        {
          "indexed": true,
          "internalType": "bytes32",
          "name": "codeHash",
          "type": "bytes32"
        },
        {
          "indexed": false,
          "internalType": "uint256",
          "name": "assetIndex",
          "type": "uint256"
        },
        {
          "indexed": false,
          "internalType": "uint8",
          "name": "assetType",
          "type": "uint8"
        }
      ],
      "name": "AssetAddedToGiftPack",
      "type": "event"
    },
    {
      "anonymous": false,
      "inputs": [
        {
          "indexed": true,
          "internalType": "bytes32",
          "name": "codeHash",
          "type": "bytes32"
        },
        {
          "indexed": true,
          "internalType": "address",
          "name": "claimer",
          "type": "address"
        },
        {
          "indexed": false,
          "internalType": "uint256",
          "name": "blockNumber",
          "type": "uint256"
        }
      ],
      "name": "ClaimCommitted",
      "type": "event"
    },
    {
      "anonymous": false,
      "inputs": [
        {
          "indexed": true,
          "internalType": "bytes32",
          "name": "codeHash",
          "type": "bytes32"
        },
        {
          "indexed": true,
          "internalType": "address",
          "name": "claimer",
          "type": "address"
        }
      ],
      "name": "CommitmentWithdrawn",
      "type": "event"
    },
    {
      "anonymous": false,
      "inputs": [
        {
          "indexed": true,
          "internalType": "bytes32",
          "name": "codeHash",
          "type": "bytes32"
        },
        {
          "indexed": true,
          "internalType": "address",
          "name": "claimer",
          "type": "address"
        }
      ],
      "name": "GiftPackClaimed",
      "type": "event"
    },
    {
      "anonymous": false,
      "inputs": [
        {
          "indexed": true,
          "internalType": "bytes32",
          "name": "codeHash",
          "type": "bytes32"
        },
        {
          "indexed": true,
          "internalType": "address",
          "name": "sender",
          "type": "address"
        },
        {
          "indexed": false,
          "internalType": "uint256",
          "name": "assetCount",
          "type": "uint256"
        }
      ],
      "name": "GiftPackLocked",
      "type": "event"
    },
    {
      "inputs": [],
      "name": "COMMIT_EXPIRE_BLOCKS",
      "outputs": [
        {
          "internalType": "uint256",
          "name": "",
          "type": "uint256"
        }
      ],
      "stateMutability": "view",
      "type": "function"
    },
    {
      "inputs": [],
      "name": "COMMIT_REVEAL_DELAY",
      "outputs": [
        {
          "internalType": "uint256",
          "name": "",
          "type": "uint256"
        }
      ],
      "stateMutability": "view",
      "type": "function"
    },
    {
      "inputs": [
        {
          "internalType": "bytes32",
          "name": "codeHash",
          "type": "bytes32"
        },
        {
          "internalType": "uint8",
          "name": "assetType",
          "type": "uint8"
        },
        {
          "internalType": "address",
          "name": "tokenAddress",
          "type": "address"
        },
        {
          "internalType": "uint256",
          "name": "tokenId",
          "type": "uint256"
        },
        {
          "internalType": "uint256",
          "name": "amount",
          "type": "uint256"
        }
      ],
      "name": "addAssetToGiftPack",
      "outputs": [],
      "stateMutability": "payable",
      "type": "function"
    },
    {
      "inputs": [
        {
          "internalType": "uint256",
          "name": "",
          "type": "uint256"
        }
      ],
      "name": "allCodeHashes",
      "outputs": [
        {
          "internalType": "bytes32",
          "name": "",
          "type": "bytes32"
        }
      ],
      "stateMutability": "view",
      "type": "function"
    },
    {
      "inputs": [
        {
          "internalType": "bytes32",
          "name": "",
          "type": "bytes32"
        }
      ],
      "name": "claimCommitments",
      "outputs": [
        {
          "internalType": "bytes32",
          "name": "value",
          "type": "bytes32"
        },
        {
          "internalType": "uint256",
          "name": "blockNumber",
          "type": "uint256"
        },
        {
          "internalType": "address",
          "name": "claimer",
          "type": "address"
        }
      ],
      "stateMutability": "view",
      "type": "function"
    },
    {
      "inputs": [
        {
          "internalType": "bytes32",
          "name": "",
          "type": "bytes32"
        }
      ],
      "name": "codeHashExists",
      "outputs": [
        {
          "internalType": "bool",
          "name": "",
          "type": "bool"
        }
      ],
      "stateMutability": "view",
      "type": "function"
    },
    {
      "inputs": [
        {
          "internalType": "bytes32",
          "name": "codeHash",
          "type": "bytes32"
        }
      ],
      "name": "codeHashExistsCheck",
      "outputs": [
        {
          "internalType": "bool",
          "name": "exists",
          "type": "bool"
        }
      ],
      "stateMutability": "view",
      "type": "function"
    },
    {
      "inputs": [
        {
          "internalType": "bytes32",
          "name": "codeHash",
          "type": "bytes32"
        },
        {
          "internalType": "bytes32",
          "name": "commitment",
          "type": "bytes32"
        }
      ],
      "name": "commitClaim",
      "outputs": [],
      "stateMutability": "nonpayable",
      "type": "function"
    },
    {
      "inputs": [
        {
          "internalType": "string",
          "name": "message",
          "type": "string"
        },
        {
          "internalType": "bytes32",
          "name": "codeHash",
          "type": "bytes32"
        },
        {
          "components": [
            {
              "internalType": "address",
              "name": "tokenAddress",
              "type": "address"
            },
            {
              "internalType": "bytes",
              "name": "data",
              "type": "bytes"
            }
          ],
          "internalType": "struct GiftEscrow.ApprovalCall[]",
          "name": "approvals",
          "type": "tuple[]"
        },
        {
          "components": [
            {
              "internalType": "uint8",
              "name": "assetType",
              "type": "uint8"
            },
            {
              "internalType": "address",
              "name": "tokenAddress",
              "type": "address"
            },
            {
              "internalType": "uint256",
              "name": "tokenId",
              "type": "uint256"
            },
            {
              "internalType": "uint256",
              "name": "amount",
              "type": "uint256"
            }
          ],
          "internalType": "struct GiftEscrow.AddAssetCall[]",
          "name": "assets",
          "type": "tuple[]"
        }
      ],
      "name": "createAndLockGiftBatch",
      "outputs": [],
      "stateMutability": "payable",
      "type": "function"
    },
    {
      "inputs": [
        {
          "internalType": "string",
          "name": "message",
          "type": "string"
        },
        {
          "internalType": "bytes32",
          "name": "codeHash",
          "type": "bytes32"
        }
      ],
      "name": "createGiftPack",
      "outputs": [
        {
          "internalType": "bytes32",
          "name": "",
          "type": "bytes32"
        }
      ],
      "stateMutability": "nonpayable",
      "type": "function"
    },
    {
      "inputs": [],
      "name": "getAllCodeHashes",
      "outputs": [
        {
          "internalType": "bytes32[]",
          "name": "codeHashes",
          "type": "bytes32[]"
        }
      ],
      "stateMutability": "view",
      "type": "function"
    },
    {
      "inputs": [
        {
          "internalType": "bytes32",
          "name": "codeHash",
          "type": "bytes32"
        },
        {
          "internalType": "uint256",
          "name": "index",
          "type": "uint256"
        }
      ],
      "name": "getAssetByIndex",
      "outputs": [
        {
          "components": [
            {
              "internalType": "enum GiftEscrow.AssetType",
              "name": "assetType",
              "type": "uint8"
            },
            {
              "internalType": "address",
              "name": "tokenAddress",
              "type": "address"
            },
            {
              "internalType": "uint256",
              "name": "tokenId",
              "type": "uint256"
            },
            {
              "internalType": "uint256",
              "name": "amount",
              "type": "uint256"
            }
          ],
          "internalType": "struct GiftEscrow.Asset",
          "name": "asset",
          "type": "tuple"
        }
      ],
      "stateMutability": "view",
      "type": "function"
    },
    {
      "inputs": [
        {
          "internalType": "bytes32",
          "name": "codeHash",
          "type": "bytes32"
        }
      ],
      "name": "getGiftPackAssets",
      "outputs": [
        {
          "components": [
            {
              "internalType": "enum GiftEscrow.AssetType",
              "name": "assetType",
              "type": "uint8"
            },
            {
              "internalType": "address",
              "name": "tokenAddress",
              "type": "address"
            },
            {
              "internalType": "uint256",
              "name": "tokenId",
              "type": "uint256"
            },
            {
              "internalType": "uint256",
              "name": "amount",
              "type": "uint256"
            }
          ],
          "internalType": "struct GiftEscrow.Asset[]",
          "name": "assets",
          "type": "tuple[]"
        }
      ],
      "stateMutability": "view",
      "type": "function"
    },
    {
      "inputs": [
        {
          "internalType": "bytes32",
          "name": "codeHash",
          "type": "bytes32"
        }
      ],
      "name": "getGiftPackDetails",
      "outputs": [
        {
          "internalType": "address",
          "name": "sender",
          "type": "address"
        },
        {
          "internalType": "bool",
          "name": "claimed",
          "type": "bool"
        },
        {
          "internalType": "string",
          "name": "message",
          "type": "string"
        },
        {
          "internalType": "uint256",
          "name": "assetCount",
          "type": "uint256"
        }
      ],
      "stateMutability": "view",
      "type": "function"
    },
    {
      "inputs": [
        {
          "internalType": "uint256",
          "name": "",
          "type": "uint256"
        }
      ],
      "name": "giftIdToCodeHash",
      "outputs": [
        {
          "internalType": "bytes32",
          "name": "",
          "type": "bytes32"
        }
      ],
      "stateMutability": "view",
      "type": "function"
    },
    {
      "inputs": [
        {
          "internalType": "bytes32",
          "name": "",
          "type": "bytes32"
        }
      ],
      "name": "giftPacks",
      "outputs": [
        {
          "internalType": "address",
          "name": "sender",
          "type": "address"
        },
        {
          "internalType": "bool",
          "name": "claimed",
          "type": "bool"
        },
        {
          "internalType": "string",
          "name": "message",
          "type": "string"
        },
        {
          "internalType": "bytes32",
          "name": "codeHash",
          "type": "bytes32"
        }
      ],
      "stateMutability": "view",
      "type": "function"
    },
    {
      "inputs": [
        {
          "internalType": "bytes32",
          "name": "codeHash",
          "type": "bytes32"
        }
      ],
      "name": "lockGiftPack",
      "outputs": [],
      "stateMutability": "nonpayable",
      "type": "function"
    },
    {
      "inputs": [],
      "name": "nextGiftId",
      "outputs": [
        {
          "internalType": "uint256",
          "name": "",
          "type": "uint256"
        }
      ],
      "stateMutability": "view",
      "type": "function"
    },
    {
      "inputs": [
        {
          "internalType": "address",
          "name": "",
          "type": "address"
        },
        {
          "internalType": "address",
          "name": "",
          "type": "address"
        },
        {
          "internalType": "uint256",
          "name": "",
          "type": "uint256"
        },
        {
          "internalType": "bytes",
          "name": "",
          "type": "bytes"
        }
      ],
      "name": "onERC721Received",
      "outputs": [
        {
          "internalType": "bytes4",
          "name": "",
          "type": "bytes4"
        }
      ],
      "stateMutability": "pure",
      "type": "function"
    },
    {
      "inputs": [
        {
          "internalType": "bytes32",
          "name": "codeHash",
          "type": "bytes32"
        },
        {
          "internalType": "string",
          "name": "code",
          "type": "string"
        },
        {
          "internalType": "bytes32",
          "name": "nonce",
          "type": "bytes32"
        }
      ],
      "name": "revealAndClaim",
      "outputs": [],
      "stateMutability": "nonpayable",
      "type": "function"
    },
    {
      "inputs": [
        {
          "internalType": "bytes32",
          "name": "codeHash",
          "type": "bytes32"
        }
      ],
      "name": "validateGiftPackForLocking",
      "outputs": [
        {
          "internalType": "bool",
          "name": "valid",
          "type": "bool"
        },
        {
          "internalType": "string",
          "name": "reason",
          "type": "string"
        }
      ],
      "stateMutability": "view",
      "type": "function"
    },
    {
      "inputs": [
        {
          "internalType": "bytes32",
          "name": "codeHash",
          "type": "bytes32"
        }
      ],
      "name": "withdrawCommitment",
      "outputs": [],
      "stateMutability": "nonpayable",
      "type": "function"
    },
    {
      "stateMutability": "payable",
      "type": "receive"
    }
  ],
  "bytecode": "0x60808060405234601f576001600055600160065561211290816100258239f35b600080fdfe6080604052600436101561001b575b361561001957600080fd5b005b6000803560e01c806306d495bc146117e657806307763e58146117bc5780630b495bf31461173657806312f0a275146116f6578063150b7a021461169f57806323846a61146114565780632614d4ce1461137d5780632746eac7146112a057806333d030a6146112265780634623fdd11461120a578063487dd9e21461100257806348c1401c14610fb7578063595a1f1a14610b8557806362c56a9314610b2e5780636340caa014610abd5780638434e48014610383578063a9703eb2146103b2578063a9caf15314610383578063cce27548146102cd578063cdddc353146102b1578063de5da0cf146102935763fa4185fa14610119575061000e565b3461029057604036600319011261029057600435808252600360205261014560ff604084205416611af6565b808252600160205261016160ff604084205460a01c1615611d77565b808252600760205260408220600201546001600160a01b03168015908115610286575b501561024157604051606081018181106001600160401b0382111761022d57604052602435815260026020820143815260408301903382528486526007602052604086209351845551600184015560018060a01b0390511691019060018060a01b03166bffffffffffffffffffffffff60a01b825416179055604051904382527f1018c0fe91794c2e0a6462522b570d2f0b3bfc2b93282f744146606d3d961beb60203393a380f35b634e487b7160e01b84526041600452602484fd5b60405162461bcd60e51b815260206004820152601960248201527f416e6f7468657220636c61696d20696e2070726f6772657373000000000000006044820152606490fd5b9050331438610184565b80fd5b50346102905780600319360112610290576020600654604051908152f35b5034610290578060031936011261029057602060405160fa8152f35b503461029057806003193601126102905760405180602060055491828152018091600585527f036b6384b5eca791c62761152d0c79bb0604c104a5fb6f4eb0703f3154bb3db090855b81811061036d575050508261032c910383611a31565b604051928392602084019060208552518091526040840192915b818110610354575050500390f35b8251845285945060209384019390920191600101610346565b8254845260209093019260019283019201610316565b50346102905760203660031901126102905760ff60406020926004358152600384522054166040519015158152f35b506080366003190112610290576004356001600160401b0381116109a1576103de903690600401611999565b90602435906044356001600160401b038111610ab95736602382011215610ab9578060040135906001600160401b038211610ab5576024810190602436918460051b010111610ab557606435926001600160401b0384116108235736602385011215610823578360040135956001600160401b038711610962573660248860071b870101116109625761046f612053565b858852600360205261048860ff60408a20541615611c43565b8615610a70576104b06040519261049e84611a00565b33845260208401928a84523691611c8a565b604083810191825260608401888152888b526001602052908a209351845493516001600160a81b03199094166001600160a01b03919091161792151560a01b60ff60a01b1692909217835551805160018401916001600160401b038211610a5c5761051b83546119c6565b601f8111610a17575b50602090601f83116001146109b0576002949392918c91836109a5575b50508160011b916000199060031b1c19161790555b51910155838652600360205260408620805460ff1916600117905561057a84611cc1565b855b828110610867575050508390845b84811015610827578060071b8201926080602319853603011261082357604051906105b482611a00565b602485013560ff81169081810361081f5783526044860135906001600160a01b038216820361081f57602084019182526106076002604086019260648a013584526084606088019a01358a521115611e01565b60ff84511692600384101561080b576002840361070a5761062a88511515611ebb565b875181018091116106f65790610687939291975b898c5260026020526040808d2093519251915190519490926001600160a01b0316906106739061066d87611a00565b86611b38565b602085015260408401526060830152611f35565b848752600260205260408720546000198101919082116106e257516040805192835260ff90911660208301526001929186917f25eda64c22ff2667da4de3ebff2a567f56d7a2766c4e0fe20da789414a7827aa91a20161058a565b634e487b7160e01b88526011600452602488fd5b634e487b7160e01b8b52601160045260248bfd5b9692919082610759578151610687949061072e906001600160a01b03161515611e3d565b61073a81511515611ebb565b8251815161075491309033906001600160a01b031661200f565b61063e565b6001831461076b575b6106879361063e565b8151610781906001600160a01b03161515611e3d565b61078d81511515611e81565b815181518c916001600160a01b0316803b1561080757604051632142170760e11b8152336004820152306024820152604481019290925282908290606490829084905af180156107fc576107e3575b5050610762565b816107ed91611a31565b6107f8578a386107dc565b8a80fd5b6040513d84823e3d90fd5b8280fd5b634e487b7160e01b8b52602160045260248bfd5b8980fd5b8680fd5b5050610834903414611ef4565b6040519182527f4d11e95ec908217605d711badec934879ce7b7be6eb3d2d3c35c754408ceee9c60203393a36001815580f35b86610873828585611fed565b356001600160a01b03811681036109a15761088f838686611fed565b602081013590601e198136030182121561099d5701908135916001600160401b03831161099d5760200191803603831361099d57838093826040519384928337810182815203925af16108e0611fbd565b9015610966578051806108f8575b505060010161057c565b816020918101031261096257602001518015908115036109625761091d5738806108ee565b60405162461bcd60e51b815260206004820152601760248201527f417070726f76616c2072657475726e65642066616c73650000000000000000006044820152606490fd5b8780fd5b60405162461bcd60e51b815260206004820152600f60248201526e105c1c1c9bdd985b0819985a5b1959608a1b6044820152606490fd5b8380fd5b5080fd5b015190503880610541565b838c52818c209190601f1984168d5b8181106109ff5750916001939185600298979694106109e6575b505050811b019055610556565b015160001960f88460031b161c191690553880806109d9565b929360206001819287860151815501950193016109bf565b838c5260208c20601f840160051c81019160208510610a52575b601f0160051c01905b818110610a475750610524565b8c8155600101610a3a565b9091508190610a31565b634e487b7160e01b8b52604160045260248bfd5b60405162461bcd60e51b815260206004820152601b60248201527f4174206c65617374206f6e6520617373657420726571756972656400000000006044820152606490fd5b8580fd5b8480fd5b503461029057602036600319011261029057604060ff916004358152600160205220805490610b246002610af360018401611a52565b9201549160405194859460018060a01b038116865260a01c1615156020850152608060408501526080840190611927565b9060608301520390f35b5034610290576020366003190112610290576004359060055482101561029057600554821015610b71576020916005825282822001549060031b1c604051908152f35b634e487b7160e01b81526032600452602490fd5b5034610290576060366003190112610290576004356024356001600160401b03811161080757610bb9903690600401611999565b90610bc2612053565b8284526003602052610bda60ff604086205416611af6565b82845260016020526040842091825491610bfa60ff8460a01c1615611d77565b848652600760205260408620610c1d60018060a01b036002830154163314611db5565b600181015460018101808211610fa3574310610f5e5760fa81018091116106e2574311610f0d575460405160208101903360601b825284846034830137610c7860206034838881016044358382015203018084520182611a31565b51902003610ed3578491610ca9602060405183819483830196873781018a838201520301601f198101835282611a31565b51902003610e9f5760ff60a01b1916600160a01b1790558082526007602090815260408084206000808255600182018190556002918201558385529091528220825b8154811015610e7057610cfe8183611d0c565b5060ff8154166003811015610e5c5785919060018103610d9057508054600191909101549060081c6001600160a01b0316803b1561080757604051632142170760e11b8152306004820152336024820152604481019290925282908290606490829084905af180156107fc57610d7b575b50506001905b01610ceb565b81610d8591611a31565b61099d578338610d6f565b9291508583610ded5750805460029091015460405163a9059cbb60e01b602082015233602482015260448082019290925290815260019350610de89160081c6001600160a01b0316610de3606483611a31565b612075565b610d75565b9192600214610e01575b5050600190610d75565b8180600281930154335af1610e14611fbd565b5015610e21578338610df7565b60405162461bcd60e51b8152602060048201526013602482015272115512081d1c985b9cd9995c8819985a5b1959606a1b6044820152606490fd5b634e487b7160e01b86526021600452602486fd5b505033907f65840200ead5fceefc7c15e974090667076408b430c0804ae61a5068e0eeb77a8380a36001815580f35b60405162461bcd60e51b815260206004820152600c60248201526b496e76616c696420636f646560a01b6044820152606490fd5b60405162461bcd60e51b8152602060048201526012602482015271125b9d985b1a590818dbdb5b5a5d1b595b9d60721b6044820152606490fd5b60405162461bcd60e51b8152602060048201526024808201527f436f6d6d69746d656e7420657870697265643a20706c656173652072652d636f6044820152631b5b5a5d60e21b6064820152608490fd5b60405162461bcd60e51b815260206004820152601e60248201527f546f6f206561726c793a207761697420666f72206e65787420626c6f636b00006044820152606490fd5b634e487b7160e01b89526011600452602489fd5b50346102905760203660031901126102905760406060916004358152600760205220805490600181015490600260018060a01b03910154169060405192835260208301526040820152f35b5060a036600319011261029057600435906024359160ff831692838103610807576044356001600160a01b038116949085900361099d5760643594608435848652600360205261105860ff604088205416611af6565b8486526001602052604086205461108a9060ff906110806001600160a01b0382163314611d3e565b60a01c1615611d77565b6003831015610e5c576110a06002841115611e01565b60028303611148576110e2939495966110ba341515611ebb565b6110c5823414611ef4565b868852600260205260408820926106736040519561066d87611a00565b818352600260205260408320546000198101908111611134576040805191825260ff9290921660208201527f25eda64c22ff2667da4de3ebff2a567f56d7a2766c4e0fe20da789414a7827aa9190a280f35b634e487b7160e01b84526011600452602484fd5b8261117b576110e29394959661115f831515611e3d565b61116a821515611ebb565b6111768230338661200f565b6110c5565b60018314611190575b6110e2939495966110c5565b61119b821515611e3d565b6111a6871515611e81565b813b15610ab557604051632142170760e11b815233600482015230602482015260448101889052868160648183875af180156111ff576111e7575b50611184565b956111f7816110e2969798611a31565b9594936111e1565b6040513d89823e3d90fd5b5034610290578060031936011261029057602060405160018152f35b503461029057602036600319011261029057600435808252600760205261125d60018060a01b036002604085200154163314611db5565b808252600760205281600260408220828155826001820155015533907f098d378f932d7f93d1df0f8ed5cdde1d549eea3963c503615a31e510610249938380a380f35b50346102905760203660031901126102905760043580825260036020526112cd60ff604084205416611af6565b808252600160205260408220546112f59060ff906110806001600160a01b0382163314611d3e565b80825260026020526040822054156113445780825260026020526040822054906040519182527f4d11e95ec908217605d711badec934879ce7b7be6eb3d2d3c35c754408ceee9c60203393a380f35b60405162461bcd60e51b81526020600482015260116024820152704e6f2061737365747320696e207061636b60781b6044820152606490fd5b503461029057604036600319011261029057600435602435918060606040516113a581611a00565b828152826020820152826040820152015281815260036020526113ce60ff604083205416611af6565b8181526002602052604081205483101561141157608092604082611402946113fc9452600260205220611d0c565b50611b44565b61140f60405180926118dc565bf35b60405162461bcd60e51b815260206004820152601960248201527f417373657420696e646578206f7574206f6620626f756e6473000000000000006044820152606490fd5b5034610290576040366003190112610290576004356001600160401b0381116109a157611487903690600401611999565b906024359182845260036020526114a560ff60408620541615611c43565b6114c7604051926114b584611a00565b33845260208401928684523691611c8a565b60408381019182526060840185815285875260016020529086209351845493516001600160a81b03199094166001600160a01b03919091161792151560a01b60ff60a01b1692909217835551805160018401916001600160401b03821161168b5761153283546119c6565b601f8111611646575b50602090601f83116001146115df576002949392918891836115d4575b50508160011b916000199060031b1c19161790555b51910155808252600360205260408220805460ff1916600117905561159181611cc1565b600654825260046020528060408320556006549160001983146115c05750600160209201600655604051908152f35b634e487b7160e01b81526011600452602490fd5b015190503880611558565b8388528188209190601f198416895b81811061162e575091600193918560029897969410611615575b505050811b01905561156d565b015160001960f88460031b161c19169055388080611608565b929360206001819287860151815501950193016115ee565b83885260208820601f840160051c81019160208510611681575b601f0160051c01905b818110611676575061153b565b888155600101611669565b9091508190611660565b634e487b7160e01b87526041600452602487fd5b5034610290576080366003190112610290576116b9611968565b506116c2611983565b506064356001600160401b0381116109a1576116e2903690600401611999565b5050604051630a85bd0160e11b8152602090f35b503461029057602036600319011261029057611713600435611ba3565b9061173260405192839215158352604060208401526040830190611927565b0390f35b50346102905760203660031901126102905760ff9060043590818152600360205261176683604083205416611af6565b8181526001602052610b2461178f60016040808520948554968152600260205220549301611a52565b60405194859460018060a01b038116865260a01c1615156020850152608060408501526080840190611927565b50346102905760203660031901126102905760406020916004358152600483522054604051908152f35b503461029057602036600319011261029057600435808252600360205261181360ff604084205416611af6565b815260026020526040812080546001600160401b0381116118c8576040519061184260208260051b0183611a31565b80825260208201809385526020852085915b8383106118aa57868587604051928392602084019060208552518091526040840192915b818110611886575050500390f35b91935091602060808261189c60019488516118dc565b019401910191849392611878565b600360206001926118ba85611b44565b815201920192019190611854565b634e487b7160e01b83526041600452602483fd5b805160038110156119115782526020808201516001600160a01b03169083015260408082015190830152606090810151910152565b634e487b7160e01b600052602160045260246000fd5b919082519283825260005b848110611953575050826000602080949584010152601f8019910116010190565b80602080928401015182828601015201611932565b600435906001600160a01b038216820361197e57565b600080fd5b602435906001600160a01b038216820361197e57565b9181601f8401121561197e578235916001600160401b03831161197e576020838186019501011161197e57565b90600182811c921680156119f6575b60208310146119e057565b634e487b7160e01b600052602260045260246000fd5b91607f16916119d5565b608081019081106001600160401b03821117611a1b57604052565b634e487b7160e01b600052604160045260246000fd5b90601f801991011681019081106001600160401b03821117611a1b57604052565b9060405191826000825492611a66846119c6565b8084529360018116908115611ad45750600114611a8d575b50611a8b92500383611a31565b565b90506000929192526020600020906000915b818310611ab8575050906020611a8b9282010138611a7e565b6020919350806001915483858901015201910190918492611a9f565b905060209250611a8b94915060ff191682840152151560051b82010138611a7e565b15611afd57565b60405162461bcd60e51b815260206004820152601360248201527211da599d081c1858dac81b9bdd08199bdd5b99606a1b6044820152606490fd5b60038210156119115752565b90604051611b5181611a00565b6060600282948054611b6660ff821686611b38565b60081c6001600160a01b03166020850152600181015460408501520154910152565b6001600160401b038111611a1b57601f01601f191660200190565b8015611c0f57600052600360205260ff60406000205416611bd657600190604051611bcf602082611a31565b6000815290565b600090604051611be7604082611a31565b6018815277436f6465206861736820616c72656164792065786973747360401b602082015290565b50600090604051611c21604082611a31565b601281527110dbd919481a185cda081c995c5d5a5c995960721b602082015290565b15611c4a57565b60405162461bcd60e51b8152602060048201526018602482015277436f6465206861736820616c72656164792065786973747360401b6044820152606490fd5b929192611c9682611b88565b91611ca46040519384611a31565b82948184528183011161197e578281602093846000960137010152565b600554600160401b811015611a1b57600181016005556000600554821015610b7157600590527f036b6384b5eca791c62761152d0c79bb0604c104a5fb6f4eb0703f3154bb3db00155565b8054821015611d28576000526003602060002091020190600090565b634e487b7160e01b600052603260045260246000fd5b15611d4557565b60405162461bcd60e51b815260206004820152600a6024820152692737ba1039b2b73232b960b11b6044820152606490fd5b15611d7e57565b60405162461bcd60e51b815260206004820152600f60248201526e105b1c9958591e4818db185a5b5959608a1b6044820152606490fd5b15611dbc57565b60405162461bcd60e51b815260206004820152601860248201527f4e6f20636f6d6d69746d656e7420666f722063616c6c657200000000000000006044820152606490fd5b15611e0857565b60405162461bcd60e51b815260206004820152600d60248201526c4261642061737365745479706560981b6044820152606490fd5b15611e4457565b60405162461bcd60e51b8152602060048201526015602482015274496e76616c696420746f6b656e206164647265737360581b6044820152606490fd5b15611e8857565b60405162461bcd60e51b815260206004820152600b60248201526a0746f6b656e4964203e20360ac1b6044820152606490fd5b15611ec257565b60405162461bcd60e51b815260206004820152600a6024820152690416d6f756e74203e20360b41b6044820152606490fd5b15611efb57565b60405162461bcd60e51b815260206004820152601260248201527108aa89040ecc2d8eaca40dad2e6dac2e8c6d60731b6044820152606490fd5b8054600160401b811015611a1b57611f5291600182018155611d0c565b919091611fa757805160038110156119115782546020830151610100600160a81b0360089190911b1660ff929092166001600160a81b0319909116171782556040810151600183015560600151600290910155565b634e487b7160e01b600052600060045260246000fd5b3d15611fe8573d90611fce82611b88565b91611fdc6040519384611a31565b82523d6000602084013e565b606090565b9190811015611d285760051b81013590603e198136030182121561197e570190565b6040516323b872dd60e01b60208201526001600160a01b039283166024820152929091166044830152606480830193909352918152611a8b91610de3608483611a31565b600260005414612064576002600055565b633ee5aeb560e01b60005260046000fd5b906000602091828151910182855af1156120d0576000513d6120c757506001600160a01b0381163b155b6120a65750565b635274afe760e01b60009081526001600160a01b0391909116600452602490fd5b6001141561209f565b6040513d6000823e3d90fdfea264697066735822122003bf1fd6a0f1e559b59ee7370bf1b70c9945943e58a6014f11ee0a2dcd6d435f64736f6c634300081c0033",
  "linkReferences": {},
  "deployedLinkReferences": {}
}